{
  "contractName": "RageToken",
  "abi": [
    {
      "inputs": [],
      "payable": false,
      "stateMutability": "nonpayable",
      "type": "constructor"
    },
    {
      "anonymous": false,
      "inputs": [
        {
          "indexed": true,
          "internalType": "address",
          "name": "owner",
          "type": "address"
        },
        {
          "indexed": true,
          "internalType": "address",
          "name": "spender",
          "type": "address"
        },
        {
          "indexed": false,
          "internalType": "uint256",
          "name": "value",
          "type": "uint256"
        }
      ],
      "name": "Approval",
      "type": "event"
    },
    {
      "anonymous": false,
      "inputs": [
        {
          "indexed": false,
          "internalType": "address",
          "name": "userAddress",
          "type": "address"
        },
        {
          "indexed": false,
          "internalType": "address payable",
          "name": "relayerAddress",
          "type": "address"
        },
        {
          "indexed": false,
          "internalType": "bytes",
          "name": "functionSignature",
          "type": "bytes"
        }
      ],
      "name": "MetaTransactionExecuted",
      "type": "event"
    },
    {
      "anonymous": false,
      "inputs": [
        {
          "indexed": true,
          "internalType": "address",
          "name": "previousOwner",
          "type": "address"
        },
        {
          "indexed": true,
          "internalType": "address",
          "name": "newOwner",
          "type": "address"
        }
      ],
      "name": "OwnershipTransferred",
      "type": "event"
    },
    {
      "anonymous": false,
      "inputs": [
        {
          "indexed": true,
          "internalType": "address",
          "name": "from",
          "type": "address"
        },
        {
          "indexed": true,
          "internalType": "address",
          "name": "to",
          "type": "address"
        },
        {
          "indexed": false,
          "internalType": "uint256",
          "name": "value",
          "type": "uint256"
        }
      ],
      "name": "Transfer",
      "type": "event"
    },
    {
      "constant": true,
      "inputs": [
        {
          "internalType": "address",
          "name": "owner",
          "type": "address"
        },
        {
          "internalType": "address",
          "name": "spender",
          "type": "address"
        }
      ],
      "name": "allowance",
      "outputs": [
        {
          "internalType": "uint256",
          "name": "",
          "type": "uint256"
        }
      ],
      "payable": false,
      "stateMutability": "view",
      "type": "function"
    },
    {
      "constant": true,
      "inputs": [
        {
          "internalType": "address",
          "name": "account",
          "type": "address"
        }
      ],
      "name": "balanceOf",
      "outputs": [
        {
          "internalType": "uint256",
          "name": "",
          "type": "uint256"
        }
      ],
      "payable": false,
      "stateMutability": "view",
      "type": "function"
    },
    {
      "constant": true,
      "inputs": [],
      "name": "decimals",
      "outputs": [
        {
          "internalType": "uint8",
          "name": "",
          "type": "uint8"
        }
      ],
      "payable": false,
      "stateMutability": "view",
      "type": "function"
    },
    {
      "constant": false,
      "inputs": [
        {
          "internalType": "address",
          "name": "spender",
          "type": "address"
        },
        {
          "internalType": "uint256",
          "name": "subtractedValue",
          "type": "uint256"
        }
      ],
      "name": "decreaseAllowance",
      "outputs": [
        {
          "internalType": "bool",
          "name": "",
          "type": "bool"
        }
      ],
      "payable": false,
      "stateMutability": "nonpayable",
      "type": "function"
    },
    {
      "constant": false,
      "inputs": [
        {
          "internalType": "address",
          "name": "userAddress",
          "type": "address"
        },
        {
          "internalType": "bytes",
          "name": "functionSignature",
          "type": "bytes"
        },
        {
          "internalType": "bytes32",
          "name": "sigR",
          "type": "bytes32"
        },
        {
          "internalType": "bytes32",
          "name": "sigS",
          "type": "bytes32"
        },
        {
          "internalType": "uint8",
          "name": "sigV",
          "type": "uint8"
        }
      ],
      "name": "executeMetaTransaction",
      "outputs": [
        {
          "internalType": "bytes",
          "name": "",
          "type": "bytes"
        }
      ],
      "payable": true,
      "stateMutability": "payable",
      "type": "function"
    },
    {
      "constant": true,
      "inputs": [],
      "name": "getChainID",
      "outputs": [
        {
          "internalType": "uint256",
          "name": "id",
          "type": "uint256"
        }
      ],
      "payable": false,
      "stateMutability": "view",
      "type": "function"
    },
    {
      "constant": true,
      "inputs": [
        {
          "internalType": "address",
          "name": "user",
          "type": "address"
        }
      ],
      "name": "getNonce",
      "outputs": [
        {
          "internalType": "uint256",
          "name": "nonce",
          "type": "uint256"
        }
      ],
      "payable": false,
      "stateMutability": "view",
      "type": "function"
    },
    {
      "constant": true,
      "inputs": [],
      "name": "initialSupply",
      "outputs": [
        {
          "internalType": "uint256",
          "name": "",
          "type": "uint256"
        }
      ],
      "payable": false,
      "stateMutability": "view",
      "type": "function"
    },
    {
      "constant": true,
      "inputs": [],
      "name": "isOwner",
      "outputs": [
        {
          "internalType": "bool",
          "name": "",
          "type": "bool"
        }
      ],
      "payable": false,
      "stateMutability": "view",
      "type": "function"
    },
    {
      "constant": true,
      "inputs": [],
      "name": "name",
      "outputs": [
        {
          "internalType": "string",
          "name": "",
          "type": "string"
        }
      ],
      "payable": false,
      "stateMutability": "view",
      "type": "function"
    },
    {
      "constant": true,
      "inputs": [],
      "name": "owner",
      "outputs": [
        {
          "internalType": "address",
          "name": "",
          "type": "address"
        }
      ],
      "payable": false,
      "stateMutability": "view",
      "type": "function"
    },
    {
      "constant": false,
      "inputs": [],
      "name": "renounceOwnership",
      "outputs": [],
      "payable": false,
      "stateMutability": "nonpayable",
      "type": "function"
    },
    {
      "constant": true,
      "inputs": [],
      "name": "symbol",
      "outputs": [
        {
          "internalType": "string",
          "name": "",
          "type": "string"
        }
      ],
      "payable": false,
      "stateMutability": "view",
      "type": "function"
    },
    {
      "constant": true,
      "inputs": [],
      "name": "totalSupply",
      "outputs": [
        {
          "internalType": "uint256",
          "name": "",
          "type": "uint256"
        }
      ],
      "payable": false,
      "stateMutability": "view",
      "type": "function"
    },
    {
      "constant": false,
      "inputs": [
        {
          "internalType": "address",
          "name": "newOwner",
          "type": "address"
        }
      ],
      "name": "transferOwnership",
      "outputs": [],
      "payable": false,
      "stateMutability": "nonpayable",
      "type": "function"
    },
    {
      "constant": false,
      "inputs": [
        {
          "internalType": "address",
          "name": "spender",
          "type": "address"
        },
        {
          "internalType": "uint256",
          "name": "amount",
          "type": "uint256"
        }
      ],
      "name": "approve",
      "outputs": [
        {
          "internalType": "bool",
          "name": "",
          "type": "bool"
        }
      ],
      "payable": false,
      "stateMutability": "nonpayable",
      "type": "function"
    },
    {
      "constant": false,
      "inputs": [
        {
          "internalType": "uint256",
          "name": "supply",
          "type": "uint256"
        }
      ],
      "name": "mint",
      "outputs": [],
      "payable": false,
      "stateMutability": "nonpayable",
      "type": "function"
    },
    {
      "constant": false,
      "inputs": [
        {
          "internalType": "address",
          "name": "to",
          "type": "address"
        },
        {
          "internalType": "uint256",
          "name": "value",
          "type": "uint256"
        }
      ],
      "name": "transfer",
      "outputs": [
        {
          "internalType": "bool",
          "name": "success",
          "type": "bool"
        }
      ],
      "payable": false,
      "stateMutability": "nonpayable",
      "type": "function"
    },
    {
      "constant": false,
      "inputs": [
        {
          "internalType": "address",
          "name": "from",
          "type": "address"
        },
        {
          "internalType": "address",
          "name": "to",
          "type": "address"
        },
        {
          "internalType": "uint256",
          "name": "value",
          "type": "uint256"
        }
      ],
      "name": "transferFrom",
      "outputs": [
        {
          "internalType": "bool",
          "name": "success",
          "type": "bool"
        }
      ],
      "payable": false,
      "stateMutability": "nonpayable",
      "type": "function"
    },
    {
      "constant": false,
      "inputs": [
        {
          "internalType": "address",
          "name": "spender",
          "type": "address"
        },
        {
          "internalType": "uint256",
          "name": "addedValue",
          "type": "uint256"
        }
      ],
      "name": "increaseAllowance",
      "outputs": [
        {
          "internalType": "bool",
          "name": "",
          "type": "bool"
        }
      ],
      "payable": false,
      "stateMutability": "nonpayable",
      "type": "function"
    },
    {
      "constant": false,
      "inputs": [
        {
          "internalType": "address",
          "name": "to",
          "type": "address"
        },
        {
          "internalType": "uint256",
          "name": "value",
          "type": "uint256"
        }
      ],
      "name": "burnToken",
      "outputs": [
        {
          "internalType": "bool",
          "name": "success",
          "type": "bool"
        }
      ],
      "payable": false,
      "stateMutability": "nonpayable",
      "type": "function"
    }
  ],
  "bytecode": "0x6080604052683635c9adc5dea00000600a553480156200001e57600080fd5b50604051806040016040528060098152602001682930b3b2aa37b5b2b760b91b815250604051806040016040528060018152602001603160f81b815250620138818282826040518060400160405280600a8152602001692920a3a2902a37b5b2b760b11b81525060405180604001604052806005815260200164545241474560d81b81525060128260039080519060200190620000bd929190620003db565b508151620000d3906004906020850190620003db565b506005805460ff191660ff92909216919091179055505060078190556040805160808101909152605280825262001dc8602083013980519060200120838051906020012083805190602001206200012f6200020e60201b60201c565b6040805160208082019690965280820194909452606084019290925260808301523060a0808401919091528151808403909101815260c0909201905280519101206006555060009450620001919350506001600160e01b036200021516915050565b600980546001600160a01b0319166001600160a01b038316908117909155604051919250906000907f8be0079c531659141344cd1fd0a4f28419497f9722a3daafe3b4186f6b6457e0908290a35062000208620001f66001600160e01b036200021916565b600a546001600160e01b036200027816565b6200047d565b6007545b90565b3390565b600033301415620002735760606000368080601f0160208091040260200160405190810160405280939291908181526020018383808284376000920191909152505050503601516001600160a01b03169150620002129050565b503390565b6001600160a01b038216620002d4576040805162461bcd60e51b815260206004820152601f60248201527f45524332303a206d696e7420746f20746865207a65726f206164647265737300604482015290519081900360640190fd5b620002f0816002546200037960201b62000fb71790919060201c565b6002556001600160a01b038216600090815260208181526040909120546200032391839062000fb762000379821b17901c565b6001600160a01b0383166000818152602081815260408083209490945583518581529351929391927fddf252ad1be2c89b69c2b068fc378daa952ba7f163c4a11628f55a4df523b3ef9281900390910190a35050565b600082820183811015620003d4576040805162461bcd60e51b815260206004820152601b60248201527f536166654d6174683a206164646974696f6e206f766572666c6f770000000000604482015290519081900360640190fd5b9392505050565b828054600181600116156101000203166002900490600052602060002090601f016020900481019282601f106200041e57805160ff19168380011785556200044e565b828001600101855582156200044e579182015b828111156200044e57825182559160200191906001019062000431565b506200045c92915062000460565b5090565b6200021291905b808211156200045c576000815560010162000467565b61193b806200048d6000396000f3fe60806040526004361061012a5760003560e01c806370a08231116100ab578063a0712d681161006f578063a0712d681461049a578063a457c2d7146104c4578063a9059cbb146104fd578063d1df306c14610536578063dd62ed3e1461056f578063f2fde38b146105aa5761012a565b806370a08231146103f5578063715018a6146104285780638da5cb5b1461043f5780638f32d59b1461047057806395d89b41146104855761012a565b80632d0335ab116100f25780632d0335ab14610334578063313ce56714610367578063378dc3dc1461039257806339509351146103a7578063564b81ef146103e05761012a565b806306fdde031461012f578063095ea7b3146101b95780630c53c51c1461020657806318160ddd146102ca57806323b872dd146102f1575b600080fd5b34801561013b57600080fd5b506101446105dd565b6040805160208082528351818301528351919283929083019185019080838360005b8381101561017e578181015183820152602001610166565b50505050905090810190601f1680156101ab5780820380516001836020036101000a031916815260200191505b509250505060405180910390f35b3480156101c557600080fd5b506101f2600480360360408110156101dc57600080fd5b506001600160a01b038135169060200135610673565b604080519115158252519081900360200190f35b610144600480360360a081101561021c57600080fd5b6001600160a01b03823516919081019060408101602082013564010000000081111561024757600080fd5b82018360208201111561025957600080fd5b8035906020019184600183028401116401000000008311171561027b57600080fd5b91908080601f016020809104026020016040519081016040528093929190818152602001838380828437600092019190915250929550508235935050506020810135906040013560ff16610690565b3480156102d657600080fd5b506102df610a1b565b60408051918252519081900360200190f35b3480156102fd57600080fd5b506101f26004803603606081101561031457600080fd5b506001600160a01b03813581169160208101359091169060400135610a21565b34801561034057600080fd5b506102df6004803603602081101561035757600080fd5b50356001600160a01b0316610a39565b34801561037357600080fd5b5061037c610a54565b6040805160ff9092168252519081900360200190f35b34801561039e57600080fd5b506102df610a5d565b3480156103b357600080fd5b506101f2600480360360408110156103ca57600080fd5b506001600160a01b038135169060200135610a63565b3480156103ec57600080fd5b506102df610a79565b34801561040157600080fd5b506102df6004803603602081101561041857600080fd5b50356001600160a01b0316610a7f565b34801561043457600080fd5b5061043d610a9e565b005b34801561044b57600080fd5b50610454610b41565b604080516001600160a01b039092168252519081900360200190f35b34801561047c57600080fd5b506101f2610b50565b34801561049157600080fd5b50610144610b76565b3480156104a657600080fd5b5061043d600480360360208110156104bd57600080fd5b5035610bd7565b3480156104d057600080fd5b506101f2600480360360408110156104e757600080fd5b506001600160a01b038135169060200135610beb565b34801561050957600080fd5b506101f26004803603604081101561052057600080fd5b506001600160a01b038135169060200135610c5e565b34801561054257600080fd5b506101f26004803603604081101561055957600080fd5b506001600160a01b038135169060200135610c72565b34801561057b57600080fd5b506102df6004803603604081101561059257600080fd5b506001600160a01b0381358116916020013516610cd7565b3480156105b657600080fd5b5061043d600480360360208110156105cd57600080fd5b50356001600160a01b0316610d02565b60038054604080516020601f60026000196101006001881615020190951694909404938401819004810282018101909252828152606093909290918301828280156106695780601f1061063e57610100808354040283529160200191610669565b820191906000526020600020905b81548152906001019060200180831161064c57829003601f168201915b5050505050905090565b6000610687610680610d64565b8484610dc2565b50600192915050565b6060600061069d86610eae565b90506000356001600160e01b031990811690821614156106ee5760405162461bcd60e51b815260040180806020018281038252603d8152602001806117cc603d913960400191505060405180910390fd5b6106f66116d1565b50604080516060810182526001600160a01b038916600081815260086020908152908490205483528201529081018790526107348882888888610eca565b61076f5760405162461bcd60e51b81526004018080602001828103825260218152602001806118576021913960400191505060405180910390fd5b6001600160a01b03881660009081526008602052604090205461079990600163ffffffff610fb716565b600860008a6001600160a01b03166001600160a01b031681526020019081526020016000208190555060006060306001600160a01b0316898b6040516020018083805190602001908083835b602083106108045780518252601f1990920191602091820191016107e5565b6001836020036101000a038019825116818451168082178552505050505050905001826001600160a01b03166001600160a01b031660601b8152601401925050506040516020818303038152906040526040518082805190602001908083835b602083106108835780518252601f199092019160209182019101610864565b6001836020036101000a0380198251168184511680821785525050505050509050019150506000604051808303816000865af19150503d80600081146108e5576040519150601f19603f3d011682016040523d82523d6000602084013e6108ea565b606091505b509150915081610941576040805162461bcd60e51b815260206004820152601c60248201527f46756e6374696f6e2063616c6c206e6f74207375636365737366756c00000000604482015290519081900360640190fd5b7f5845892132946850460bff5a0083f71031bc5bf9aadcd40f1de79423eac9b10b8a338b60405180846001600160a01b03166001600160a01b03168152602001836001600160a01b03166001600160a01b0316815260200180602001828103825283818151815260200191508051906020019080838360005b838110156109d25781810151838201526020016109ba565b50505050905090810190601f1680156109ff5780820380516001836020036101000a031916815260200191505b5094505050505060405180910390a19998505050505050505050565b60025490565b6000610a2e848484611018565b506001949350505050565b6001600160a01b031660009081526008602052604090205490565b60055460ff1690565b600a5481565b6000610a6f8383611096565b5060019392505050565b60075490565b6001600160a01b0381166000908152602081905260409020545b919050565b610aa6610b50565b610af7576040805162461bcd60e51b815260206004820181905260248201527f4f776e61626c653a2063616c6c6572206973206e6f7420746865206f776e6572604482015290519081900360640190fd5b6009546040516000916001600160a01b0316907f8be0079c531659141344cd1fd0a4f28419497f9722a3daafe3b4186f6b6457e0908390a3600980546001600160a01b0319169055565b6009546001600160a01b031690565b6009546000906001600160a01b0316610b676110ea565b6001600160a01b031614905090565b60048054604080516020601f60026000196101006001881615020190951694909404938401819004810282018101909252828152606093909290918301828280156106695780601f1061063e57610100808354040283529160200191610669565b610be8610be2610d64565b826110ee565b50565b6000610687610bf86110ea565b84610c59856040518060600160405280602581526020016118e26025913960016000610c226110ea565b6001600160a01b03908116825260208083019390935260409182016000908120918d1681529252902054919063ffffffff6111de16565b610dc2565b6000610687610c6b610d64565b8484611275565b6000610c7c610b50565b610ccd576040805162461bcd60e51b815260206004820181905260248201527f4f776e61626c653a2063616c6c6572206973206e6f7420746865206f776e6572604482015290519081900360640190fd5b61068783836113d1565b6001600160a01b03918216600090815260016020908152604080832093909416825291909152205490565b610d0a610b50565b610d5b576040805162461bcd60e51b815260206004820181905260248201527f4f776e61626c653a2063616c6c6572206973206e6f7420746865206f776e6572604482015290519081900360640190fd5b610be8816114cd565b600033301415610dbc5760606000368080601f0160208091040260200160405190810160405280939291908181526020018383808284376000920191909152505050503601516001600160a01b03169150610dbf9050565b50335b90565b6001600160a01b038316610e075760405162461bcd60e51b81526004018080602001828103825260248152602001806118be6024913960400191505060405180910390fd5b6001600160a01b038216610e4c5760405162461bcd60e51b81526004018080602001828103825260228152602001806117aa6022913960400191505060405180910390fd5b6001600160a01b03808416600081815260016020908152604080832094871680845294825291829020859055815185815291517f8c5be1e5ebec7d5bd14f71427d1e84f3dd0314c0f7b2291e5b200ac8c7c3b9259281900390910190a3505050565b6000815160001415610ec257506000610a99565b506020015190565b6000806001610ee0610edb8861156e565b61163d565b84878760405160008152602001604052604051808581526020018460ff1660ff1681526020018381526020018281526020019450505050506020604051602081039080840390855afa158015610f3a573d6000803e3d6000fd5b5050604051601f1901519150506001600160a01b038116610f96576040805162461bcd60e51b8152602060048201526011602482015270496e76616c6964207369676e617475726560781b604482015290519081900360640190fd5b866001600160a01b0316816001600160a01b03161491505095945050505050565b600082820183811015611011576040805162461bcd60e51b815260206004820152601b60248201527f536166654d6174683a206164646974696f6e206f766572666c6f770000000000604482015290519081900360640190fd5b9392505050565b6000611025848484611275565b610a6f846110316110ea565b610c598560405180606001604052806028815260200161182f602891396001600160a01b038a1660009081526001602052604081209061106f6110ea565b6001600160a01b03168152602081019190915260400160002054919063ffffffff6111de16565b60006106876110a36110ea565b84610c5985600160006110b46110ea565b6001600160a01b03908116825260208083019390935260409182016000908120918c16815292529020549063ffffffff610fb716565b3390565b6001600160a01b038216611149576040805162461bcd60e51b815260206004820152601f60248201527f45524332303a206d696e7420746f20746865207a65726f206164647265737300604482015290519081900360640190fd5b60025461115c908263ffffffff610fb716565b6002556001600160a01b038216600090815260208190526040902054611188908263ffffffff610fb716565b6001600160a01b0383166000818152602081815260408083209490945583518581529351929391927fddf252ad1be2c89b69c2b068fc378daa952ba7f163c4a11628f55a4df523b3ef9281900390910190a35050565b6000818484111561126d5760405162461bcd60e51b81526004018080602001828103825283818151815260200191508051906020019080838360005b8381101561123257818101518382015260200161121a565b50505050905090810190601f16801561125f5780820380516001836020036101000a031916815260200191505b509250505060405180910390fd5b505050900390565b6001600160a01b0383166112ba5760405162461bcd60e51b81526004018080602001828103825260258152602001806118996025913960400191505060405180910390fd5b6001600160a01b0382166112ff5760405162461bcd60e51b81526004018080602001828103825260238152602001806116fc6023913960400191505060405180910390fd5b61134281604051806060016040528060268152602001611809602691396001600160a01b038616600090815260208190526040902054919063ffffffff6111de16565b6001600160a01b038085166000908152602081905260408082209390935590841681522054611377908263ffffffff610fb716565b6001600160a01b038084166000818152602081815260409182902094909455805185815290519193928716927fddf252ad1be2c89b69c2b068fc378daa952ba7f163c4a11628f55a4df523b3ef92918290030190a3505050565b6001600160a01b0382166114165760405162461bcd60e51b81526004018080602001828103825260218152602001806118786021913960400191505060405180910390fd5b6114598160405180606001604052806022815260200161171f602291396001600160a01b038516600090815260208190526040902054919063ffffffff6111de16565b6001600160a01b038316600090815260208190526040902055600254611485908263ffffffff61168916565b6002556040805182815290516000916001600160a01b038516917fddf252ad1be2c89b69c2b068fc378daa952ba7f163c4a11628f55a4df523b3ef9181900360200190a35050565b6001600160a01b0381166115125760405162461bcd60e51b81526004018080602001828103825260268152602001806117846026913960400191505060405180910390fd5b6009546040516001600160a01b038084169216907f8be0079c531659141344cd1fd0a4f28419497f9722a3daafe3b4186f6b6457e090600090a3600980546001600160a01b0319166001600160a01b0392909216919091179055565b600060405180608001604052806043815260200161174160439139805190602001208260000151836020015184604001516040518082805190602001908083835b602083106115ce5780518252601f1990920191602091820191016115af565b51815160001960209485036101000a019081169019919091161790526040805194909201849003842084820199909952838201979097526001600160a01b039095166060830152506080808201969096528351808203909601865260a001909252505081519101209050919050565b60006116476116cb565b82604051602001808061190160f01b81525060020183815260200182815260200192505050604051602081830303815290604052805190602001209050919050565b600061101183836040518060400160405280601e81526020017f536166654d6174683a207375627472616374696f6e206f766572666c6f7700008152506111de565b60065490565b60405180606001604052806000815260200160006001600160a01b0316815260200160608152509056fe45524332303a207472616e7366657220746f20746865207a65726f206164647265737345524332303a206275726e20616d6f756e7420657863656564732062616c616e63654d6574615472616e73616374696f6e2875696e74323536206e6f6e63652c616464726573732066726f6d2c62797465732066756e6374696f6e5369676e6174757265294f776e61626c653a206e6577206f776e657220697320746865207a65726f206164647265737345524332303a20617070726f766520746f20746865207a65726f206164647265737366756e6374696f6e5369676e61747572652063616e206e6f74206265206f6620657865637574654d6574615472616e73616374696f6e206d6574686f6445524332303a207472616e7366657220616d6f756e7420657863656564732062616c616e636545524332303a207472616e7366657220616d6f756e74206578636565647320616c6c6f77616e63655369676e657220616e64207369676e617475726520646f206e6f74206d6174636845524332303a206275726e2066726f6d20746865207a65726f206164647265737345524332303a207472616e736665722066726f6d20746865207a65726f206164647265737345524332303a20617070726f76652066726f6d20746865207a65726f206164647265737345524332303a2064656372656173656420616c6c6f77616e63652062656c6f77207a65726fa265627a7a7231582097c2eb99571db8ba14ca1cd9a522e9a4e65823f7fba3b108cc937b5c267c1c7864736f6c63430005100032454950373132446f6d61696e28737472696e67206e616d652c737472696e672076657273696f6e2c75696e7432353620636861696e49642c6164647265737320766572696679696e67436f6e747261637429",
  "source": "pragma solidity 0.5.16;\n\nimport \"@openzeppelin/contracts/token/ERC20/ERC20.sol\";\nimport \"@openzeppelin/contracts/token/ERC20/ERC20Detailed.sol\";\nimport \"@openzeppelin/contracts/ownership/Ownable.sol\";\nimport \"./EIP712MetaTransaction.sol\";\n\ncontract RageToken is ERC20, ERC20Detailed, EIP712MetaTransaction, Ownable  {\n    uint256 public initialSupply = 1000000000000000000000;\n\n    constructor()\n        public\n        ERC20Detailed(\"RAGE Token\", \"TRAGE\", 18) \n        EIP712MetaTransaction(\"RageToken\", \"1\", 80001)\n    {           \n        _mint(msgSender(), initialSupply);\n    }\n\n    function approve(address spender, uint256 amount) public returns (bool) {\n        super._approve(msgSender(), spender, amount);\n        return true;\n    }\n\n\t// helper function\n    function mint(uint256 supply) external {\n        _mint(msgSender(), supply);\n    }\n\n    function transfer (address to, uint256 value)\n    public\n    returns (bool success)\n    {\n        super._transfer(msgSender(), to, value);       \n         return true;                 \n    }\n\n    function transferFrom (address from, address to, uint256 value)\n    public        \n    returns (bool success)\n    {       \n        super.transferFrom(from, to, value);\n        return true;       \n    }\n\n    function increaseAllowance(address spender, uint256 addedValue) public returns (bool) {\n        super.increaseAllowance(spender, addedValue);\n        return true;\n    }\n\n    function burnToken(address to, uint256 value)\n     public  \n     onlyOwner  \n     returns (bool success)\n    {   \n       super._burn(to, value);   \n        success = true;\n    }\n\n}",
  "sourcePath": "/home/sunil/Projects/Fantasy sports/1st April/Rage-Fan-Fantasy-Contracts/contracts/RageToken.sol",
  "compiler": {
    "name": "solc",
    "version": "0.5.16+commit.9c3226ce.Emscripten.clang"
  },
  "schemaVersion": "3.3.4",
  "updatedAt": "2021-04-03T07:01:03.240Z",
  "networkType": "ethereum",
  "devdoc": {
    "methods": {
      "allowance(address,address)": {
        "details": "See {IERC20-allowance}."
      },
      "balanceOf(address)": {
        "details": "See {IERC20-balanceOf}."
      },
      "decimals()": {
        "details": "Returns the number of decimals used to get its user representation. For example, if `decimals` equals `2`, a balance of `505` tokens should be displayed to a user as `5,05` (`505 / 10 ** 2`).     * Tokens usually opt for a value of 18, imitating the relationship between Ether and Wei.     * NOTE: This information is only used for _display_ purposes: it in no way affects any of the arithmetic of the contract, including {IERC20-balanceOf} and {IERC20-transfer}."
      },
      "decreaseAllowance(address,uint256)": {
        "details": "Atomically decreases the allowance granted to `spender` by the caller.     * This is an alternative to {approve} that can be used as a mitigation for problems described in {IERC20-approve}.     * Emits an {Approval} event indicating the updated allowance.     * Requirements:     * - `spender` cannot be the zero address. - `spender` must have allowance for the caller of at least `subtractedValue`."
      },
      "isOwner()": {
        "details": "Returns true if the caller is the current owner."
      },
      "name()": {
        "details": "Returns the name of the token."
      },
      "owner()": {
        "details": "Returns the address of the current owner."
      },
      "renounceOwnership()": {
        "details": "Leaves the contract without owner. It will not be possible to call `onlyOwner` functions anymore. Can only be called by the current owner.     * NOTE: Renouncing ownership will leave the contract without an owner, thereby removing any functionality that is only available to the owner."
      },
      "symbol()": {
        "details": "Returns the symbol of the token, usually a shorter version of the name."
      },
      "totalSupply()": {
        "details": "See {IERC20-totalSupply}."
      },
      "transferOwnership(address)": {
        "details": "Transfers ownership of the contract to a new account (`newOwner`). Can only be called by the current owner."
      }
    }
  },
  "userdoc": {
    "methods": {}
  }
}