{
  "contractName": "RageContest",
  "abi": [
    {
      "inputs": [
        {
          "internalType": "address",
          "name": "_adminOwner",
          "type": "address"
        }
      ],
      "payable": false,
      "stateMutability": "nonpayable",
      "type": "constructor"
    },
    {
      "anonymous": false,
      "inputs": [
        {
          "indexed": false,
          "internalType": "address",
          "name": "player",
          "type": "address"
        }
      ],
      "name": "ApprovePlay",
      "type": "event"
    },
    {
      "anonymous": false,
      "inputs": [],
      "name": "ContestCanceled",
      "type": "event"
    },
    {
      "anonymous": false,
      "inputs": [
        {
          "indexed": false,
          "internalType": "address",
          "name": "sender",
          "type": "address"
        },
        {
          "indexed": false,
          "internalType": "string",
          "name": "_id",
          "type": "string"
        },
        {
          "indexed": false,
          "internalType": "string",
          "name": "_name",
          "type": "string"
        },
        {
          "indexed": false,
          "internalType": "uint256",
          "name": "_startTime",
          "type": "uint256"
        },
        {
          "indexed": false,
          "internalType": "uint256",
          "name": "_endTime",
          "type": "uint256"
        },
        {
          "indexed": false,
          "internalType": "string",
          "name": "_contestTitle",
          "type": "string"
        }
      ],
      "name": "ContestCreatedEvent",
      "type": "event"
    },
    {
      "anonymous": false,
      "inputs": [
        {
          "indexed": false,
          "internalType": "address",
          "name": "player",
          "type": "address"
        }
      ],
      "name": "LogPlay",
      "type": "event"
    },
    {
      "anonymous": false,
      "inputs": [
        {
          "indexed": false,
          "internalType": "address",
          "name": "withdrawer",
          "type": "address"
        },
        {
          "indexed": false,
          "internalType": "uint256",
          "name": "amount",
          "type": "uint256"
        }
      ],
      "name": "LogWithdrawal",
      "type": "event"
    },
    {
      "anonymous": false,
      "inputs": [
        {
          "indexed": false,
          "internalType": "address",
          "name": "userAddress",
          "type": "address"
        },
        {
          "indexed": false,
          "internalType": "address payable",
          "name": "relayerAddress",
          "type": "address"
        },
        {
          "indexed": false,
          "internalType": "bytes",
          "name": "functionSignature",
          "type": "bytes"
        }
      ],
      "name": "MetaTransactionExecuted",
      "type": "event"
    },
    {
      "anonymous": false,
      "inputs": [],
      "name": "PlayerDataUpdated",
      "type": "event"
    },
    {
      "constant": true,
      "inputs": [],
      "name": "canceled",
      "outputs": [
        {
          "internalType": "bool",
          "name": "",
          "type": "bool"
        }
      ],
      "payable": false,
      "stateMutability": "view",
      "type": "function"
    },
    {
      "constant": true,
      "inputs": [],
      "name": "contestFees",
      "outputs": [
        {
          "internalType": "uint256",
          "name": "",
          "type": "uint256"
        }
      ],
      "payable": false,
      "stateMutability": "view",
      "type": "function"
    },
    {
      "constant": true,
      "inputs": [],
      "name": "contestId",
      "outputs": [
        {
          "internalType": "string",
          "name": "",
          "type": "string"
        }
      ],
      "payable": false,
      "stateMutability": "view",
      "type": "function"
    },
    {
      "constant": true,
      "inputs": [],
      "name": "contestTitle",
      "outputs": [
        {
          "internalType": "string",
          "name": "",
          "type": "string"
        }
      ],
      "payable": false,
      "stateMutability": "view",
      "type": "function"
    },
    {
      "constant": true,
      "inputs": [
        {
          "internalType": "uint256",
          "name": "",
          "type": "uint256"
        }
      ],
      "name": "contestants",
      "outputs": [
        {
          "internalType": "address",
          "name": "",
          "type": "address"
        }
      ],
      "payable": false,
      "stateMutability": "view",
      "type": "function"
    },
    {
      "constant": true,
      "inputs": [],
      "name": "decimals",
      "outputs": [
        {
          "internalType": "uint256",
          "name": "",
          "type": "uint256"
        }
      ],
      "payable": false,
      "stateMutability": "view",
      "type": "function"
    },
    {
      "constant": true,
      "inputs": [],
      "name": "endTime",
      "outputs": [
        {
          "internalType": "uint256",
          "name": "",
          "type": "uint256"
        }
      ],
      "payable": false,
      "stateMutability": "view",
      "type": "function"
    },
    {
      "constant": false,
      "inputs": [
        {
          "internalType": "address",
          "name": "userAddress",
          "type": "address"
        },
        {
          "internalType": "bytes",
          "name": "functionSignature",
          "type": "bytes"
        },
        {
          "internalType": "bytes32",
          "name": "sigR",
          "type": "bytes32"
        },
        {
          "internalType": "bytes32",
          "name": "sigS",
          "type": "bytes32"
        },
        {
          "internalType": "uint8",
          "name": "sigV",
          "type": "uint8"
        }
      ],
      "name": "executeMetaTransaction",
      "outputs": [
        {
          "internalType": "bytes",
          "name": "",
          "type": "bytes"
        }
      ],
      "payable": true,
      "stateMutability": "payable",
      "type": "function"
    },
    {
      "constant": true,
      "inputs": [
        {
          "internalType": "address",
          "name": "",
          "type": "address"
        }
      ],
      "name": "fundsByParticipants",
      "outputs": [
        {
          "internalType": "uint256",
          "name": "",
          "type": "uint256"
        }
      ],
      "payable": false,
      "stateMutability": "view",
      "type": "function"
    },
    {
      "constant": true,
      "inputs": [
        {
          "internalType": "address",
          "name": "",
          "type": "address"
        },
        {
          "internalType": "address",
          "name": "",
          "type": "address"
        }
      ],
      "name": "fundsByParticipantsByTeam",
      "outputs": [
        {
          "internalType": "uint256",
          "name": "",
          "type": "uint256"
        }
      ],
      "payable": false,
      "stateMutability": "view",
      "type": "function"
    },
    {
      "constant": true,
      "inputs": [
        {
          "internalType": "address",
          "name": "",
          "type": "address"
        }
      ],
      "name": "fundsByWinners",
      "outputs": [
        {
          "internalType": "uint256",
          "name": "",
          "type": "uint256"
        }
      ],
      "payable": false,
      "stateMutability": "view",
      "type": "function"
    },
    {
      "constant": true,
      "inputs": [],
      "name": "getChainID",
      "outputs": [
        {
          "internalType": "uint256",
          "name": "",
          "type": "uint256"
        }
      ],
      "payable": false,
      "stateMutability": "view",
      "type": "function"
    },
    {
      "constant": true,
      "inputs": [
        {
          "internalType": "address",
          "name": "user",
          "type": "address"
        }
      ],
      "name": "getNonce",
      "outputs": [
        {
          "internalType": "uint256",
          "name": "nonce",
          "type": "uint256"
        }
      ],
      "payable": false,
      "stateMutability": "view",
      "type": "function"
    },
    {
      "constant": true,
      "inputs": [],
      "name": "isActive",
      "outputs": [
        {
          "internalType": "bool",
          "name": "",
          "type": "bool"
        }
      ],
      "payable": false,
      "stateMutability": "view",
      "type": "function"
    },
    {
      "constant": true,
      "inputs": [],
      "name": "maxContestants",
      "outputs": [
        {
          "internalType": "uint256",
          "name": "",
          "type": "uint256"
        }
      ],
      "payable": false,
      "stateMutability": "view",
      "type": "function"
    },
    {
      "constant": true,
      "inputs": [],
      "name": "minContestants",
      "outputs": [
        {
          "internalType": "uint256",
          "name": "",
          "type": "uint256"
        }
      ],
      "payable": false,
      "stateMutability": "view",
      "type": "function"
    },
    {
      "constant": true,
      "inputs": [],
      "name": "name",
      "outputs": [
        {
          "internalType": "string",
          "name": "",
          "type": "string"
        }
      ],
      "payable": false,
      "stateMutability": "view",
      "type": "function"
    },
    {
      "constant": true,
      "inputs": [],
      "name": "owner",
      "outputs": [
        {
          "internalType": "address",
          "name": "",
          "type": "address"
        }
      ],
      "payable": false,
      "stateMutability": "view",
      "type": "function"
    },
    {
      "constant": true,
      "inputs": [
        {
          "internalType": "address",
          "name": "",
          "type": "address"
        }
      ],
      "name": "participantsList",
      "outputs": [
        {
          "internalType": "bool",
          "name": "",
          "type": "bool"
        }
      ],
      "payable": false,
      "stateMutability": "view",
      "type": "function"
    },
    {
      "constant": true,
      "inputs": [],
      "name": "player",
      "outputs": [
        {
          "internalType": "address",
          "name": "",
          "type": "address"
        }
      ],
      "payable": false,
      "stateMutability": "view",
      "type": "function"
    },
    {
      "constant": true,
      "inputs": [
        {
          "internalType": "uint256",
          "name": "",
          "type": "uint256"
        }
      ],
      "name": "players",
      "outputs": [
        {
          "internalType": "string",
          "name": "id",
          "type": "string"
        },
        {
          "internalType": "string",
          "name": "name",
          "type": "string"
        },
        {
          "internalType": "uint256",
          "name": "points",
          "type": "uint256"
        },
        {
          "internalType": "string",
          "name": "captain",
          "type": "string"
        }
      ],
      "payable": false,
      "stateMutability": "view",
      "type": "function"
    },
    {
      "constant": true,
      "inputs": [
        {
          "internalType": "uint256",
          "name": "",
          "type": "uint256"
        }
      ],
      "name": "playersData",
      "outputs": [
        {
          "internalType": "string",
          "name": "id",
          "type": "string"
        },
        {
          "internalType": "string",
          "name": "name",
          "type": "string"
        },
        {
          "internalType": "uint256",
          "name": "points",
          "type": "uint256"
        },
        {
          "internalType": "string",
          "name": "captain",
          "type": "string"
        }
      ],
      "payable": false,
      "stateMutability": "view",
      "type": "function"
    },
    {
      "constant": true,
      "inputs": [],
      "name": "prizePool",
      "outputs": [
        {
          "internalType": "uint256",
          "name": "",
          "type": "uint256"
        }
      ],
      "payable": false,
      "stateMutability": "view",
      "type": "function"
    },
    {
      "constant": true,
      "inputs": [],
      "name": "settled",
      "outputs": [
        {
          "internalType": "bool",
          "name": "",
          "type": "bool"
        }
      ],
      "payable": false,
      "stateMutability": "view",
      "type": "function"
    },
    {
      "constant": true,
      "inputs": [],
      "name": "startTime",
      "outputs": [
        {
          "internalType": "uint256",
          "name": "",
          "type": "uint256"
        }
      ],
      "payable": false,
      "stateMutability": "view",
      "type": "function"
    },
    {
      "constant": true,
      "inputs": [],
      "name": "winningAmount",
      "outputs": [
        {
          "internalType": "uint256",
          "name": "",
          "type": "uint256"
        }
      ],
      "payable": false,
      "stateMutability": "view",
      "type": "function"
    },
    {
      "constant": false,
      "inputs": [
        {
          "internalType": "string",
          "name": "_id",
          "type": "string"
        },
        {
          "internalType": "string",
          "name": "_name",
          "type": "string"
        },
        {
          "internalType": "uint256",
          "name": "_startTime",
          "type": "uint256"
        },
        {
          "internalType": "uint256",
          "name": "_endTime",
          "type": "uint256"
        },
        {
          "internalType": "string",
          "name": "_contestTitle",
          "type": "string"
        },
        {
          "internalType": "uint256",
          "name": "_contestFees",
          "type": "uint256"
        },
        {
          "internalType": "uint256",
          "name": "_winningAmount",
          "type": "uint256"
        },
        {
          "internalType": "bool",
          "name": "_isActive",
          "type": "bool"
        },
        {
          "internalType": "address",
          "name": "_token",
          "type": "address"
        }
      ],
      "name": "init",
      "outputs": [],
      "payable": false,
      "stateMutability": "nonpayable",
      "type": "function"
    },
    {
      "constant": false,
      "inputs": [],
      "name": "callContest",
      "outputs": [],
      "payable": false,
      "stateMutability": "nonpayable",
      "type": "function"
    },
    {
      "constant": false,
      "inputs": [
        {
          "internalType": "uint256",
          "name": "_amount",
          "type": "uint256"
        }
      ],
      "name": "withdraw",
      "outputs": [
        {
          "internalType": "bool",
          "name": "",
          "type": "bool"
        }
      ],
      "payable": false,
      "stateMutability": "nonpayable",
      "type": "function"
    },
    {
      "constant": false,
      "inputs": [
        {
          "internalType": "uint256",
          "name": "_amount",
          "type": "uint256"
        }
      ],
      "name": "withdrawWinningAmount",
      "outputs": [
        {
          "internalType": "bool",
          "name": "success",
          "type": "bool"
        }
      ],
      "payable": false,
      "stateMutability": "nonpayable",
      "type": "function"
    },
    {
      "constant": false,
      "inputs": [
        {
          "internalType": "uint256",
          "name": "_value",
          "type": "uint256"
        }
      ],
      "name": "playNow",
      "outputs": [
        {
          "internalType": "bool",
          "name": "",
          "type": "bool"
        }
      ],
      "payable": false,
      "stateMutability": "nonpayable",
      "type": "function"
    },
    {
      "constant": false,
      "inputs": [
        {
          "internalType": "uint256[]",
          "name": "_playerIds",
          "type": "uint256[]"
        },
        {
          "internalType": "uint256[]",
          "name": "_points",
          "type": "uint256[]"
        }
      ],
      "name": "updatePlayerPoints",
      "outputs": [
        {
          "internalType": "bool",
          "name": "success",
          "type": "bool"
        }
      ],
      "payable": false,
      "stateMutability": "nonpayable",
      "type": "function"
    },
    {
      "constant": false,
      "inputs": [],
      "name": "cancelContest",
      "outputs": [
        {
          "internalType": "bool",
          "name": "success",
          "type": "bool"
        }
      ],
      "payable": false,
      "stateMutability": "nonpayable",
      "type": "function"
    }
  ],
  "bytecode": "0x60806040523480156200001157600080fd5b506040516200224438038062002244833981810160405260208110156200003757600080fd5b5051604080518082018252601381527f52616765436f6e74657374436f6e747261637400000000000000000000000000602082810191909152825180840184526001808252603160f81b8284015262013881908190558451608081019095526052808652939491939092859285928592620021f2908301398051906020012083805190602001208380519060200120620000d66200019660201b60201c565b6040805160208082019690965280820194909452606084019290925260808301523060a0808401919091528151808403909101815260c08301808352815191909401206000556101008201905260129182905271119a5c9cdd11d85b595bd990dc9a58dad95d60721b60e09091019081526200015e975060059650945092506200019d915050565b50600980546001600160a01b0390921661010002610100600160a81b03199092169190911790556011805461ffff191690556200023f565b6001545b90565b828054600181600116156101000203166002900490600052602060002090601f016020900481019282601f10620001e057805160ff191683800117855562000210565b8280016001018555821562000210579182015b8281111562000210578251825591602001919060010190620001f3565b506200021e92915062000222565b5090565b6200019a91905b808211156200021e576000815560010162000229565b611fa3806200024f6000396000f3fe6080604052600436106101ee5760003560e01c8063564b81ef1161010d578063a5fe97d8116100a0578063b9f7254d1161006f578063b9f7254d1461096c578063c61438ad14610ae1578063d54f84cc14610af6578063dfd50f5214610b0b578063f71d96cb14610b35576101ee565b8063a5fe97d8146106f8578063adcfa79914610722578063b268addf14610755578063b542d6b414610939576101ee565b80638119e8ac116100dc5780638119e8ac1461067e5780638da5cb5b146106b95780638f775839146106ce57806398f22c12146106e3576101ee565b8063564b81ef1461062a5780636158697a1461063f578063719ce73e1461065457806378e9792514610669576101ee565b8063313ce567116101855780633c1b472f116101545780633c1b472f146105875780633d1aab2a146105ba5780633f9942ff146105e457806348db5f89146105f9576101ee565b8063313ce567146104165780633197cbb61461042b57806335a0de57146104405780633b58686914610457576101ee565b806322d8f95d116101c157806322d8f95d1461038f57806322f3e2d4146103a45780632d0335ab146103b95780632e1a7d4d146103ec576101ee565b806306fdde03146101f35780630c53c51c1461027d578063170441d71461033f5780631db0e66714610366575b600080fd5b3480156101ff57600080fd5b50610208610b5f565b6040805160208082528351818301528351919283929083019185019080838360005b8381101561024257818101518382015260200161022a565b50505050905090810190601f16801561026f5780820380516001836020036101000a031916815260200191505b509250505060405180910390f35b610208600480360360a081101561029357600080fd5b6001600160a01b038235169190810190604081016020820135600160201b8111156102bd57600080fd5b8201836020820111156102cf57600080fd5b803590602001918460018302840111600160201b831117156102f057600080fd5b91908080601f016020809104026020016040519081016040528093929190818152602001838380828437600092019190915250929550508235935050506020810135906040013560ff16610bed565b34801561034b57600080fd5b50610354610f78565b60408051918252519081900360200190f35b34801561037257600080fd5b5061037b610f7e565b604080519115158252519081900360200190f35b34801561039b57600080fd5b50610354610fbd565b3480156103b057600080fd5b5061037b610fc3565b3480156103c557600080fd5b50610354600480360360208110156103dc57600080fd5b50356001600160a01b0316610fcc565b3480156103f857600080fd5b5061037b6004803603602081101561040f57600080fd5b5035610fe7565b34801561042257600080fd5b50610354611165565b34801561043757600080fd5b5061035461116b565b34801561044c57600080fd5b50610455611171565b005b34801561046357600080fd5b5061037b6004803603604081101561047a57600080fd5b810190602081018135600160201b81111561049457600080fd5b8201836020820111156104a657600080fd5b803590602001918460208302840111600160201b831117156104c757600080fd5b9190808060200260200160405190810160405280939291908181526020018383602002808284376000920191909152509295949360208101935035915050600160201b81111561051657600080fd5b82018360208201111561052857600080fd5b803590602001918460208302840111600160201b8311171561054957600080fd5b91908080602002602001604051908101604052809392919081815260200183836020028082843760009201919091525092955061133d945050505050565b34801561059357600080fd5b50610354600480360360208110156105aa57600080fd5b50356001600160a01b0316611433565b3480156105c657600080fd5b5061037b600480360360208110156105dd57600080fd5b5035611445565b3480156105f057600080fd5b5061037b611630565b34801561060557600080fd5b5061060e611639565b604080516001600160a01b039092168252519081900360200190f35b34801561063657600080fd5b5061035461164e565b34801561064b57600080fd5b50610208611654565b34801561066057600080fd5b506103546116af565b34801561067557600080fd5b506103546116b5565b34801561068a57600080fd5b50610354600480360360408110156106a157600080fd5b506001600160a01b03813581169160200135166116bb565b3480156106c557600080fd5b5061060e6116d8565b3480156106da57600080fd5b5061037b6116ec565b3480156106ef57600080fd5b506103546116fa565b34801561070457600080fd5b5061037b6004803603602081101561071b57600080fd5b5035611700565b34801561072e57600080fd5b506103546004803603602081101561074557600080fd5b50356001600160a01b0316611740565b34801561076157600080fd5b50610455600480360361012081101561077957600080fd5b810190602081018135600160201b81111561079357600080fd5b8201836020820111156107a557600080fd5b803590602001918460018302840111600160201b831117156107c657600080fd5b91908080601f0160208091040260200160405190810160405280939291908181526020018383808284376000920191909152509295949360208101935035915050600160201b81111561081857600080fd5b82018360208201111561082a57600080fd5b803590602001918460018302840111600160201b8311171561084b57600080fd5b91908080601f0160208091040260200160405190810160405280939291908181526020018383808284376000920191909152509295843595602086013595919450925060608101915060400135600160201b8111156108a957600080fd5b8201836020820111156108bb57600080fd5b803590602001918460018302840111600160201b831117156108dc57600080fd5b91908080601f016020809104026020016040519081016040528093929190818152602001838380828437600092019190915250929550508235935050506020810135906040810135151590606001356001600160a01b0316611752565b34801561094557600080fd5b5061037b6004803603602081101561095c57600080fd5b50356001600160a01b0316611834565b34801561097857600080fd5b506109966004803603602081101561098f57600080fd5b5035611849565b60405180806020018060200185815260200180602001848103845288818151815260200191508051906020019080838360005b838110156109e15781810151838201526020016109c9565b50505050905090810190601f168015610a0e5780820380516001836020036101000a031916815260200191505b50848103835287518152875160209182019189019080838360005b83811015610a41578181015183820152602001610a29565b50505050905090810190601f168015610a6e5780820380516001836020036101000a031916815260200191505b50848103825285518152855160209182019187019080838360005b83811015610aa1578181015183820152602001610a89565b50505050905090810190601f168015610ace5780820380516001836020036101000a031916815260200191505b5097505050505050505060405180910390f35b348015610aed57600080fd5b50610208611a20565b348015610b0257600080fd5b50610354611a7b565b348015610b1757600080fd5b5061060e60048036036020811015610b2e57600080fd5b5035611a81565b348015610b4157600080fd5b5061099660048036036020811015610b5857600080fd5b5035611aa8565b6005805460408051602060026001851615610100026000190190941693909304601f81018490048402820184019092528181529291830182828015610be55780601f10610bba57610100808354040283529160200191610be5565b820191906000526020600020905b815481529060010190602001808311610bc857829003601f168201915b505050505081565b60606000610bfa86611b23565b90506000356001600160e01b03199081169082161415610c4b5760405162461bcd60e51b815260040180806020018281038252603d815260200180611f11603d913960400191505060405180910390fd5b610c53611e0b565b50604080516060810182526001600160a01b03891660008181526002602090815290849020548352820152908101879052610c918882888888611b3f565b610ccc5760405162461bcd60e51b8152600401808060200182810382526021815260200180611f4e6021913960400191505060405180910390fd5b6001600160a01b038816600090815260026020526040902054610cf690600163ffffffff611c2c16565b600260008a6001600160a01b03166001600160a01b031681526020019081526020016000208190555060006060306001600160a01b0316898b6040516020018083805190602001908083835b60208310610d615780518252601f199092019160209182019101610d42565b6001836020036101000a038019825116818451168082178552505050505050905001826001600160a01b03166001600160a01b031660601b8152601401925050506040516020818303038152906040526040518082805190602001908083835b60208310610de05780518252601f199092019160209182019101610dc1565b6001836020036101000a0380198251168184511680821785525050505050509050019150506000604051808303816000865af19150503d8060008114610e42576040519150601f19603f3d011682016040523d82523d6000602084013e610e47565b606091505b509150915081610e9e576040805162461bcd60e51b815260206004820152601c60248201527f46756e6374696f6e2063616c6c206e6f74207375636365737366756c00000000604482015290519081900360640190fd5b7f5845892132946850460bff5a0083f71031bc5bf9aadcd40f1de79423eac9b10b8a338b60405180846001600160a01b03166001600160a01b03168152602001836001600160a01b03166001600160a01b0316815260200180602001828103825283818151815260200191508051906020019080838360005b83811015610f2f578181015183820152602001610f17565b50505050905090810190601f168015610f5c5780820380516001836020036101000a031916815260200191505b5094505050505060405180910390a19998505050505050505050565b600e5481565b6011805460ff191660011790556040516000907f4cd963a081760a54f571abc0f1db4dde31b4a07d8d6da3e844b8c6f47eeaaa42908290a15060015b90565b600d5481565b60095460ff1681565b6001600160a01b031660009081526002602052604090205490565b600060156000610ff5611c8d565b6001600160a01b03166001600160a01b031681526020019081526020016000205482111561102257600080fd5b816015600061102f611c8d565b6001600160a01b03166001600160a01b0316815260200190815260200160002054036015600061105d611c8d565b6001600160a01b0390811682526020820192909252604001600020919091556003541663a9059cbb61108d611c8d565b846040518363ffffffff1660e01b815260040180836001600160a01b03166001600160a01b0316815260200182815260200192505050602060405180830381600087803b1580156110dd57600080fd5b505af11580156110f1573d6000803e3d6000fd5b505050506040513d602081101561110757600080fd5b505161111257600080fd5b7fb4214c8c54fc7442f36d3682f59aebaf09358a4431835b30efb29d52cf9e1e9161113b611c8d565b604080516001600160a01b039092168252602082018590528051918290030190a15060015b919050565b600c5481565b60105481565b600f546010546040805130808252606082018590526080820184905260c06020830181815260048054600260001961010060018416150201909116049285018390527fe709833c85ca41700c1897b44eeae5b60ac65844320c0c264237e092b25be09e979396909560059591936006939183019060a084019060e08501908a90801561123e5780601f106112135761010080835404028352916020019161123e565b820191906000526020600020905b81548152906001019060200180831161122157829003601f168201915b50508481038352885460026000196101006001841615020190911604808252602090910190899080156112b25780601f10611287576101008083540402835291602001916112b2565b820191906000526020600020905b81548152906001019060200180831161129557829003601f168201915b50508481038252855460026000196101006001841615020190911604808252602090910190869080156113265780601f106112fb57610100808354040283529160200191611326565b820191906000526020600020905b81548152906001019060200180831161130957829003601f168201915b5050995050505050505050505060405180910390a1565b60095460009061010090046001600160a01b0316611359611c8d565b6001600160a01b03161461136957fe5b601054421161137757600080fd5b60115460ff161561138757600080fd5b60005b83518110156114005760008482815181106113a157fe5b6020908102919091018101516000818152601490925260409091205490915060ff16156113f7578382815181106113d457fe5b602002602001015160136000838152602001908152602001600020600201819055505b5060010161138a565b506040517f6d82b6696efd1f35b16d299f438494e06812fe1eb8686d42a8e951e001a3557a90600090a150600192915050565b60176020526000908152604090205481565b60008161145157600080fd5b6000821161145e57600080fd5b60035482906001600160a01b03166370a08231611479611c8d565b6040518263ffffffff1660e01b815260040180826001600160a01b03166001600160a01b0316815260200191505060206040518083038186803b1580156114bf57600080fd5b505afa1580156114d3573d6000803e3d6000fd5b505050506040513d60208110156114e957600080fd5b5051116114f557600080fd5b6003546001600160a01b03166323b872dd61150e611c8d565b604080516001600160e01b031960e085901b1681526001600160a01b039092166004830152306024830152604482018690525160648083019260209291908290030181600087803b15801561156257600080fd5b505af1158015611576573d6000803e3d6000fd5b505050506040513d602081101561158c57600080fd5b508290506015600061159c611c8d565b6001600160a01b03166001600160a01b031681526020019081526020016000205401601560006115ca611c8d565b6001600160a01b031681526020810191909152604001600020557f4a099707b4ea52394885dbda60d833d48ce4c67a4e336c3257ed564c686c704361160d611c8d565b604080516001600160a01b039092168252519081900360200190a1506001919050565b60115460ff1681565b6011546201000090046001600160a01b031681565b60015490565b6006805460408051602060026001851615610100026000190190941693909304601f81018490048402820184019092528181529291830182828015610be55780601f10610bba57610100808354040283529160200191610be5565b600b5481565b600f5481565b601660209081526000928352604080842090915290825290205481565b60095461010090046001600160a01b031681565b601154610100900460ff1681565b60085481565b6000601054421161171057600080fd5b60115460ff161561172057600080fd5b601154610100900460ff1661173457600080fd5b60156000610ff5611c8d565b60156020526000908152604090205481565b600554600260001961010060018416150201909116041561177257600080fd5b600088511161178057600080fd5b88516117939060049060208c0190611e35565b5087516117a79060059060208b0190611e35565b50600f879055601086905584516117c5906006906020880190611e35565b50600784905560088390556009805460ff19168315151790556117e6611c8d565b60098054610100600160a81b0319166101006001600160a01b0393841602179055600380546001600160a01b0319169290911691909117905550506011805461ffff19169055505050505050565b60186020526000908152604090205460ff1681565b60136020908152600091825260409182902080548351601f600260001961010060018616150201909316929092049182018490048402810184019094528084529092918391908301828280156118e05780601f106118b5576101008083540402835291602001916118e0565b820191906000526020600020905b8154815290600101906020018083116118c357829003601f168201915b505050505090806001018054600181600116156101000203166002900480601f01602080910402602001604051908101604052809291908181526020018280546001816001161561010002031660029004801561197e5780601f106119535761010080835404028352916020019161197e565b820191906000526020600020905b81548152906001019060200180831161196157829003601f168201915b505050506002838101546003850180546040805160206001841615610100026000190190931695909504601f810183900483028601830190915280855295969295929450909190830182828015611a165780601f106119eb57610100808354040283529160200191611a16565b820191906000526020600020905b8154815290600101906020018083116119f957829003601f168201915b5050505050905084565b6004805460408051602060026001851615610100026000190190941693909304601f81018490048402820184019092528181529291830182828015610be55780601f10610bba57610100808354040283529160200191610be5565b60075481565b60128181548110611a8e57fe5b6000918252602090912001546001600160a01b0316905081565b600a8181548110611ab557fe5b60009182526020918290206004919091020180546040805160026001841615610100026000190190931692909204601f8101859004850283018501909152808252919350918391908301828280156118e05780601f106118b5576101008083540402835291602001916118e0565b6000815160001415611b3757506000611160565b506020015190565b6000806001611b55611b5088611cea565b611db9565b84878760405160008152602001604052604051808581526020018460ff1660ff1681526020018381526020018281526020019450505050506020604051602081039080840390855afa158015611baf573d6000803e3d6000fd5b5050604051601f1901519150506001600160a01b038116611c0b576040805162461bcd60e51b8152602060048201526011602482015270496e76616c6964207369676e617475726560781b604482015290519081900360640190fd5b866001600160a01b0316816001600160a01b03161491505095945050505050565b600082820183811015611c86576040805162461bcd60e51b815260206004820152601b60248201527f536166654d6174683a206164646974696f6e206f766572666c6f770000000000604482015290519081900360640190fd5b9392505050565b600033301415611ce55760606000368080601f0160208091040260200160405190810160405280939291908181526020018383808284376000920191909152505050503601516001600160a01b03169150610fba9050565b503390565b6000604051806080016040528060438152602001611ece60439139805190602001208260000151836020015184604001516040518082805190602001908083835b60208310611d4a5780518252601f199092019160209182019101611d2b565b51815160001960209485036101000a019081169019919091161790526040805194909201849003842084820199909952838201979097526001600160a01b039095166060830152506080808201969096528351808203909601865260a001909252505081519101209050919050565b6000611dc3611e05565b82604051602001808061190160f01b81525060020183815260200182815260200192505050604051602081830303815290604052805190602001209050919050565b60005490565b60405180606001604052806000815260200160006001600160a01b03168152602001606081525090565b828054600181600116156101000203166002900490600052602060002090601f016020900481019282601f10611e7657805160ff1916838001178555611ea3565b82800160010185558215611ea3579182015b82811115611ea3578251825591602001919060010190611e88565b50611eaf929150611eb3565b5090565b610fba91905b80821115611eaf5760008155600101611eb956fe4d6574615472616e73616374696f6e2875696e74323536206e6f6e63652c616464726573732066726f6d2c62797465732066756e6374696f6e5369676e61747572652966756e6374696f6e5369676e61747572652063616e206e6f74206265206f6620657865637574654d6574615472616e73616374696f6e206d6574686f645369676e657220616e64207369676e617475726520646f206e6f74206d61746368a265627a7a723158204ff506c16713f6b427787044e5639b6680d3c5441e3aa97ebfb2685633ab617b64736f6c63430005100032454950373132446f6d61696e28737472696e67206e616d652c737472696e672076657273696f6e2c75696e7432353620636861696e49642c6164647265737320766572696679696e67436f6e747261637429",
  "source": "pragma solidity 0.5.16;\n\nimport \"./EIP712MetaTransaction.sol\";\nimport \"./RageToken.sol\";\n\ncontract RageContest is EIP712MetaTransaction {\n \n    RageToken private token;\n\n    string public contestId;\n    string public name;\n    string public contestTitle;\n    uint256 public contestFees;\n    uint256 public winningAmount;\n \n    bool public isActive;\n    address public owner;\n    \n    Player[] public players;\n\n    uint public prizePool;\n    uint public decimals;\n    \n    uint public maxContestants;\n    uint public minContestants;\n    uint public startTime;\n    uint public endTime;\n    bool public canceled;  \n    bool public settled; \n    address  public player; \n    address[] public contestants; \n    \n    struct Player {\n      string id; \n      string name;\n      uint points;\n      string captain;  //C,VC,P  \n    }\n\n    mapping (uint => Player) public playersData;\n    mapping (uint => bool) internal playersList;\n\n    mapping (address => uint256) public fundsByParticipants;\n    mapping  (address => mapping (address => uint256) ) public fundsByParticipantsByTeam;\n    mapping (address => uint256) public fundsByWinners;\n    mapping (address => bool) public participantsList;\n\n    event ContestCanceled();\n    event LogPlay(address player);\n    event ApprovePlay(address player);\n     \n    event PlayerDataUpdated();\n    event LogWithdrawal(address withdrawer,  uint amount);\n\n    event ContestCreatedEvent(address sender, string  _id, string  _name,  uint _startTime, uint _endTime, \n                string  _contestTitle);\n    /*\n    * Contract Constructor\n    */\n    constructor(address _adminOwner) \n    public \n    EIP712MetaTransaction(\"RageContestContract\",\"1\", 80001)\n    {  \n                name  =   \"FirstGameofCricket\"; \n                owner =   _adminOwner;                 \n                canceled = false;\n                settled = false;                     \n    }\n\n function init(string memory _id, string memory _name,  uint _startTime, uint _endTime, \n                string memory _contestTitle,\n                uint256 _contestFees, \n                uint256 _winningAmount, \n                bool _isActive,\n                address _token\n                ) public {\n                    \n        require(bytes(name).length == 0); // ensure not init'd already.\n        require(bytes(_name).length > 0);\n\n                contestId       =   _id;\n                name            =   _name;\n                startTime       =   _startTime;\n                endTime         =   _endTime;\n                contestTitle    =   _contestTitle;\n                contestFees     =   _contestFees;\n                winningAmount   =   _winningAmount;\n                isActive        =   _isActive;\n                owner = msgSender();            \n                token = RageToken(_token); \n                canceled = false;\n                settled = false;  \n                \n         }\n\n function callContest() public {\n    emit ContestCreatedEvent(address(this), contestId, name, startTime, endTime, contestTitle);\n  }   \n\nfunction withdraw(uint256 _amount)\n        public         \n        returns (bool)\n        {\n            require(_amount <= fundsByParticipants[msgSender()]);\n                fundsByParticipants[msgSender()] = fundsByParticipants[msgSender()] - _amount;\n            \n            require(token.transfer(msgSender(), _amount));\n\n            emit LogWithdrawal(msgSender(), _amount);\n            return true;\n        }\n\nfunction withdrawWinningAmount(uint256 _amount)\n        public \n        onlyAfterEnd \n        onlyNotCanceled\n        onlyAfterSettlement\n        returns (bool success)\n        {\n            require(_amount <= fundsByParticipants[msgSender()]);\n            fundsByParticipants[msgSender()] = fundsByParticipants[msgSender()] - _amount;\n            \n            require(token.transfer(msgSender(), _amount));\n\n            emit LogWithdrawal(msgSender(), _amount);\n            return true;\n\n        }\n     \nfunction playNow(uint256 _value)\n        public            \n        returns (bool) \n        {\n        \n        require (_value != 0);\n        require (_value > 0);\n        \n        // transfer play entry fee to the smart contract \n        //       \n        require(token.balanceOf(msgSender()) > _value); \n        //token.approve(spender, _value);\n        token.transferFrom(msgSender(), address(this), _value);   \n\n        fundsByParticipants[msgSender()] = fundsByParticipants[msgSender()] + _value;\n\n        //fundsByParticipantsByTeam[msgSender()][teamid] = _value ;\n\n        // other data to be updated\n        emit LogPlay(msgSender());\n        return true;\n    }\n\n/*     \n  \nfunction changeTeam(uint _value)\n        public\n        onlyBeforeStart\n        onlyNotCanceled\n        returns (bool success)\n        {\n        \n        emit ChangeTeamDone();\n        return true;\n    }\n*/\n\n/*\n function updateWinningData(address[] memory _winners, uint256[] memory _amount)\n        public\n        onlyOwner\n        onlyAfterEnd\n        onlyNotCanceled\n        returns (bool success)\n    {\n        \n        // update the winning address with\n        // winning amount \n        // and playid \n        // since more than one play is possible from\n        // the same address \n        \n        \n        for (uint i=0; i<_winners.length; i++) {\n            address _winner = _winners[i];\n\n            if(participantsList[_winner]) {\n                // participantsList[_playerId].points =  _points[i]; \n                fundsByWinners[_winner] = \n\n            }\n        }\n      \n\n        emit WinnersDataUpdated();\n        return true;\n    }\n */\n\n function updatePlayerPoints(uint[] memory _playerIds, uint[] memory _points)\n        public\n        onlyOwner\n        onlyAfterEnd\n        onlyNotCanceled\n        returns (bool success)\n    {\n        //\n        // update player points  \n        // \n        \n        for (uint i=0; i<_playerIds.length; i++) {\n            uint _playerId = _playerIds[i];\n\n            if(playersList[_playerId]) {\n                playersData[_playerId].points =  _points[i];   \n            }\n        }\n       \n        emit PlayerDataUpdated();\n        return true;\n    }\n\n\n    // function getContestants ()\n    //     view\n    //     public\n    //     returns(memory address[])\n    //     {\n    //         return contestants;\n    //     }\n      \nfunction cancelContest()\n        public          \n        returns (bool success)\n    {\n        canceled = true;\n\n        emit ContestCanceled();\n        return true;\n    }\n\n\n\n    modifier onlyAfterStart()  {\n        require (block.timestamp > startTime) ;\n        _;\n    }\n\n    modifier onlyBeforeStart() {\n        require (block.timestamp < startTime) ;\n        _;\n    }\n\n    modifier onlyNotCanceled() {\n        require (!canceled);\n        _;\n    }\n\n\n    //     modifier onlyOwner() {\n    //     require(_owner == _msgSender(), \"Ownable: caller is not the owner\");\n    //     _;\n    // }\n\n    modifier onlyBeforeEnd()  {\n        require (block.timestamp < endTime) ;\n        _;\n    }\n\n    modifier onlyAfterEnd()  {\n        require (block.timestamp > endTime) ;\n        _;\n    }\n\n    modifier onlyAfterSettlement() {\n        require (settled) ;\n        _;\n    }\n\n    modifier onlyEndedOrCanceled()   {\n        require (block.timestamp > endTime || canceled) ;\n        _;\n    }\n\n    modifier onlyOwner() {\n        assert (msgSender() == owner) ;\n        _;\n    }\n\n}",
  "sourcePath": "/home/sunil/Projects/Fantasy sports/1st April/Rage-Fan-Fantasy-Contracts/contracts/RageContest.sol",
  "compiler": {
    "name": "solc",
    "version": "0.5.16+commit.9c3226ce.Emscripten.clang"
  },
  "schemaVersion": "3.3.4",
  "updatedAt": "2021-04-05T11:30:51.413Z",
  "networkType": "ethereum",
  "devdoc": {
    "methods": {}
  },
  "userdoc": {
    "methods": {}
  }
}