{
  "contractName": "RageContest",
  "abi": [
    {
      "inputs": [
        {
          "internalType": "address",
          "name": "_adminOwner",
          "type": "address"
        }
      ],
      "payable": false,
      "stateMutability": "nonpayable",
      "type": "constructor"
    },
    {
      "anonymous": false,
      "inputs": [],
      "name": "ContestCanceled",
      "type": "event"
    },
    {
      "anonymous": false,
      "inputs": [
        {
          "indexed": false,
          "internalType": "address",
          "name": "sender",
          "type": "address"
        },
        {
          "indexed": false,
          "internalType": "string",
          "name": "_id",
          "type": "string"
        },
        {
          "indexed": false,
          "internalType": "string",
          "name": "_name",
          "type": "string"
        },
        {
          "indexed": false,
          "internalType": "uint256",
          "name": "_startTime",
          "type": "uint256"
        },
        {
          "indexed": false,
          "internalType": "uint256",
          "name": "_endTime",
          "type": "uint256"
        },
        {
          "indexed": false,
          "internalType": "string",
          "name": "_contestTitle",
          "type": "string"
        }
      ],
      "name": "ContestCreatedEvent",
      "type": "event"
    },
    {
      "anonymous": false,
      "inputs": [
        {
          "indexed": false,
          "internalType": "address",
          "name": "player",
          "type": "address"
        }
      ],
      "name": "LogPlay",
      "type": "event"
    },
    {
      "anonymous": false,
      "inputs": [
        {
          "indexed": false,
          "internalType": "address",
          "name": "withdrawer",
          "type": "address"
        },
        {
          "indexed": false,
          "internalType": "uint256",
          "name": "amount",
          "type": "uint256"
        }
      ],
      "name": "LogWithdrawal",
      "type": "event"
    },
    {
      "anonymous": false,
      "inputs": [
        {
          "indexed": false,
          "internalType": "address",
          "name": "userAddress",
          "type": "address"
        },
        {
          "indexed": false,
          "internalType": "address payable",
          "name": "relayerAddress",
          "type": "address"
        },
        {
          "indexed": false,
          "internalType": "bytes",
          "name": "functionSignature",
          "type": "bytes"
        }
      ],
      "name": "MetaTransactionExecuted",
      "type": "event"
    },
    {
      "anonymous": false,
      "inputs": [],
      "name": "PlayerDataUpdated",
      "type": "event"
    },
    {
      "constant": true,
      "inputs": [],
      "name": "canceled",
      "outputs": [
        {
          "internalType": "bool",
          "name": "",
          "type": "bool"
        }
      ],
      "payable": false,
      "stateMutability": "view",
      "type": "function"
    },
    {
      "constant": true,
      "inputs": [],
      "name": "contestFees",
      "outputs": [
        {
          "internalType": "uint256",
          "name": "",
          "type": "uint256"
        }
      ],
      "payable": false,
      "stateMutability": "view",
      "type": "function"
    },
    {
      "constant": true,
      "inputs": [],
      "name": "contestId",
      "outputs": [
        {
          "internalType": "string",
          "name": "",
          "type": "string"
        }
      ],
      "payable": false,
      "stateMutability": "view",
      "type": "function"
    },
    {
      "constant": true,
      "inputs": [],
      "name": "contestTitle",
      "outputs": [
        {
          "internalType": "string",
          "name": "",
          "type": "string"
        }
      ],
      "payable": false,
      "stateMutability": "view",
      "type": "function"
    },
    {
      "constant": true,
      "inputs": [
        {
          "internalType": "uint256",
          "name": "",
          "type": "uint256"
        }
      ],
      "name": "contestants",
      "outputs": [
        {
          "internalType": "address",
          "name": "",
          "type": "address"
        }
      ],
      "payable": false,
      "stateMutability": "view",
      "type": "function"
    },
    {
      "constant": true,
      "inputs": [],
      "name": "decimals",
      "outputs": [
        {
          "internalType": "uint256",
          "name": "",
          "type": "uint256"
        }
      ],
      "payable": false,
      "stateMutability": "view",
      "type": "function"
    },
    {
      "constant": true,
      "inputs": [],
      "name": "endTime",
      "outputs": [
        {
          "internalType": "uint256",
          "name": "",
          "type": "uint256"
        }
      ],
      "payable": false,
      "stateMutability": "view",
      "type": "function"
    },
    {
      "constant": false,
      "inputs": [
        {
          "internalType": "address",
          "name": "userAddress",
          "type": "address"
        },
        {
          "internalType": "bytes",
          "name": "functionSignature",
          "type": "bytes"
        },
        {
          "internalType": "bytes32",
          "name": "sigR",
          "type": "bytes32"
        },
        {
          "internalType": "bytes32",
          "name": "sigS",
          "type": "bytes32"
        },
        {
          "internalType": "uint8",
          "name": "sigV",
          "type": "uint8"
        }
      ],
      "name": "executeMetaTransaction",
      "outputs": [
        {
          "internalType": "bytes",
          "name": "",
          "type": "bytes"
        }
      ],
      "payable": true,
      "stateMutability": "payable",
      "type": "function"
    },
    {
      "constant": true,
      "inputs": [
        {
          "internalType": "address",
          "name": "",
          "type": "address"
        }
      ],
      "name": "fundsByParticipants",
      "outputs": [
        {
          "internalType": "uint256",
          "name": "",
          "type": "uint256"
        }
      ],
      "payable": false,
      "stateMutability": "view",
      "type": "function"
    },
    {
      "constant": true,
      "inputs": [
        {
          "internalType": "address",
          "name": "",
          "type": "address"
        }
      ],
      "name": "fundsByWinners",
      "outputs": [
        {
          "internalType": "uint256",
          "name": "",
          "type": "uint256"
        }
      ],
      "payable": false,
      "stateMutability": "view",
      "type": "function"
    },
    {
      "constant": true,
      "inputs": [],
      "name": "getChainID",
      "outputs": [
        {
          "internalType": "uint256",
          "name": "id",
          "type": "uint256"
        }
      ],
      "payable": false,
      "stateMutability": "view",
      "type": "function"
    },
    {
      "constant": true,
      "inputs": [
        {
          "internalType": "address",
          "name": "user",
          "type": "address"
        }
      ],
      "name": "getNonce",
      "outputs": [
        {
          "internalType": "uint256",
          "name": "nonce",
          "type": "uint256"
        }
      ],
      "payable": false,
      "stateMutability": "view",
      "type": "function"
    },
    {
      "constant": true,
      "inputs": [],
      "name": "isActive",
      "outputs": [
        {
          "internalType": "bool",
          "name": "",
          "type": "bool"
        }
      ],
      "payable": false,
      "stateMutability": "view",
      "type": "function"
    },
    {
      "constant": true,
      "inputs": [],
      "name": "maxContestants",
      "outputs": [
        {
          "internalType": "uint256",
          "name": "",
          "type": "uint256"
        }
      ],
      "payable": false,
      "stateMutability": "view",
      "type": "function"
    },
    {
      "constant": true,
      "inputs": [],
      "name": "minContestants",
      "outputs": [
        {
          "internalType": "uint256",
          "name": "",
          "type": "uint256"
        }
      ],
      "payable": false,
      "stateMutability": "view",
      "type": "function"
    },
    {
      "constant": true,
      "inputs": [],
      "name": "name",
      "outputs": [
        {
          "internalType": "string",
          "name": "",
          "type": "string"
        }
      ],
      "payable": false,
      "stateMutability": "view",
      "type": "function"
    },
    {
      "constant": true,
      "inputs": [],
      "name": "owner",
      "outputs": [
        {
          "internalType": "address",
          "name": "",
          "type": "address"
        }
      ],
      "payable": false,
      "stateMutability": "view",
      "type": "function"
    },
    {
      "constant": true,
      "inputs": [
        {
          "internalType": "address",
          "name": "",
          "type": "address"
        }
      ],
      "name": "participantsList",
      "outputs": [
        {
          "internalType": "bool",
          "name": "",
          "type": "bool"
        }
      ],
      "payable": false,
      "stateMutability": "view",
      "type": "function"
    },
    {
      "constant": true,
      "inputs": [],
      "name": "player",
      "outputs": [
        {
          "internalType": "address",
          "name": "",
          "type": "address"
        }
      ],
      "payable": false,
      "stateMutability": "view",
      "type": "function"
    },
    {
      "constant": true,
      "inputs": [
        {
          "internalType": "uint256",
          "name": "",
          "type": "uint256"
        }
      ],
      "name": "players",
      "outputs": [
        {
          "internalType": "string",
          "name": "id",
          "type": "string"
        },
        {
          "internalType": "string",
          "name": "name",
          "type": "string"
        },
        {
          "internalType": "uint256",
          "name": "points",
          "type": "uint256"
        },
        {
          "internalType": "string",
          "name": "captain",
          "type": "string"
        }
      ],
      "payable": false,
      "stateMutability": "view",
      "type": "function"
    },
    {
      "constant": true,
      "inputs": [
        {
          "internalType": "uint256",
          "name": "",
          "type": "uint256"
        }
      ],
      "name": "playersData",
      "outputs": [
        {
          "internalType": "string",
          "name": "id",
          "type": "string"
        },
        {
          "internalType": "string",
          "name": "name",
          "type": "string"
        },
        {
          "internalType": "uint256",
          "name": "points",
          "type": "uint256"
        },
        {
          "internalType": "string",
          "name": "captain",
          "type": "string"
        }
      ],
      "payable": false,
      "stateMutability": "view",
      "type": "function"
    },
    {
      "constant": true,
      "inputs": [],
      "name": "prizePool",
      "outputs": [
        {
          "internalType": "uint256",
          "name": "",
          "type": "uint256"
        }
      ],
      "payable": false,
      "stateMutability": "view",
      "type": "function"
    },
    {
      "constant": true,
      "inputs": [],
      "name": "settled",
      "outputs": [
        {
          "internalType": "bool",
          "name": "",
          "type": "bool"
        }
      ],
      "payable": false,
      "stateMutability": "view",
      "type": "function"
    },
    {
      "constant": true,
      "inputs": [],
      "name": "startTime",
      "outputs": [
        {
          "internalType": "uint256",
          "name": "",
          "type": "uint256"
        }
      ],
      "payable": false,
      "stateMutability": "view",
      "type": "function"
    },
    {
      "constant": true,
      "inputs": [],
      "name": "token",
      "outputs": [
        {
          "internalType": "contract TokenInterface",
          "name": "",
          "type": "address"
        }
      ],
      "payable": false,
      "stateMutability": "view",
      "type": "function"
    },
    {
      "constant": true,
      "inputs": [],
      "name": "winningAmount",
      "outputs": [
        {
          "internalType": "uint256",
          "name": "",
          "type": "uint256"
        }
      ],
      "payable": false,
      "stateMutability": "view",
      "type": "function"
    },
    {
      "constant": false,
      "inputs": [
        {
          "internalType": "string",
          "name": "_id",
          "type": "string"
        },
        {
          "internalType": "string",
          "name": "_name",
          "type": "string"
        },
        {
          "internalType": "uint256",
          "name": "_startTime",
          "type": "uint256"
        },
        {
          "internalType": "uint256",
          "name": "_endTime",
          "type": "uint256"
        },
        {
          "internalType": "string",
          "name": "_contestTitle",
          "type": "string"
        },
        {
          "internalType": "uint256",
          "name": "_contestFees",
          "type": "uint256"
        },
        {
          "internalType": "uint256",
          "name": "_winningAmount",
          "type": "uint256"
        },
        {
          "internalType": "bool",
          "name": "_isActive",
          "type": "bool"
        },
        {
          "internalType": "address",
          "name": "_tokenAddress",
          "type": "address"
        },
        {
          "internalType": "address",
          "name": "from",
          "type": "address"
        }
      ],
      "name": "init",
      "outputs": [],
      "payable": false,
      "stateMutability": "nonpayable",
      "type": "function"
    },
    {
      "constant": false,
      "inputs": [],
      "name": "callContest",
      "outputs": [],
      "payable": false,
      "stateMutability": "nonpayable",
      "type": "function"
    },
    {
      "constant": false,
      "inputs": [
        {
          "internalType": "uint256",
          "name": "_amount",
          "type": "uint256"
        }
      ],
      "name": "withdraw",
      "outputs": [
        {
          "internalType": "bool",
          "name": "success",
          "type": "bool"
        }
      ],
      "payable": false,
      "stateMutability": "nonpayable",
      "type": "function"
    },
    {
      "constant": false,
      "inputs": [
        {
          "internalType": "uint256",
          "name": "_amount",
          "type": "uint256"
        }
      ],
      "name": "withdrawWinningAmount",
      "outputs": [
        {
          "internalType": "bool",
          "name": "success",
          "type": "bool"
        }
      ],
      "payable": false,
      "stateMutability": "nonpayable",
      "type": "function"
    },
    {
      "constant": false,
      "inputs": [
        {
          "internalType": "uint256",
          "name": "_value",
          "type": "uint256"
        }
      ],
      "name": "playNow",
      "outputs": [
        {
          "internalType": "bool",
          "name": "success",
          "type": "bool"
        }
      ],
      "payable": false,
      "stateMutability": "nonpayable",
      "type": "function"
    },
    {
      "constant": false,
      "inputs": [
        {
          "internalType": "uint256[]",
          "name": "_playerIds",
          "type": "uint256[]"
        },
        {
          "internalType": "uint256[]",
          "name": "_points",
          "type": "uint256[]"
        }
      ],
      "name": "updatePlayerPoints",
      "outputs": [
        {
          "internalType": "bool",
          "name": "success",
          "type": "bool"
        }
      ],
      "payable": false,
      "stateMutability": "nonpayable",
      "type": "function"
    },
    {
      "constant": false,
      "inputs": [],
      "name": "cancelContest",
      "outputs": [
        {
          "internalType": "bool",
          "name": "success",
          "type": "bool"
        }
      ],
      "payable": false,
      "stateMutability": "nonpayable",
      "type": "function"
    }
  ],
  "bytecode": "0x60806040523480156200001157600080fd5b506040516200227338038062002273833981810160405260208110156200003757600080fd5b5051604080518082018252601381527f52616765436f6e74657374436f6e747261637400000000000000000000000000602082810191909152825180840184526001808252603160f81b828401526201388190819055845160808101909552605280865293949193909285928592859262002221908301398051906020012083805190602001208380519060200120620000d66200018b60201b60201c565b6040805160208082019690965280820194909452606084019290925260808301523060a0808401919091528151808403909101815260c08301808352815191909401206000556101008201905260129182905271119a5c9cdd11d85b595bd990dc9a58dad95d60721b60e09091019081526200015e9750600596509450925062000192915050565b50600980546001600160a01b0390921661010002610100600160a81b031990921691909117905562000234565b6001545b90565b828054600181600116156101000203166002900490600052602060002090601f016020900481019282601f10620001d557805160ff191683800117855562000205565b8280016001018555821562000205579182015b8281111562000205578251825591602001919060010190620001e8565b506200021392915062000217565b5090565b6200018f91905b808211156200021357600081556001016200021e565b611fdd80620002446000396000f3fe6080604052600436106101ee5760003560e01c806348db5f891161010d578063a5fe97d8116100a0578063c61438ad1161006f578063c61438ad14610aae578063d54f84cc14610ac3578063dfd50f5214610ad8578063f71d96cb14610b02578063fc0c546a14610b2c576101ee565b8063a5fe97d8146108a9578063adcfa799146108d3578063b542d6b414610906578063b9f7254d14610939576101ee565b806378e97925116100dc57806378e97925146108555780638da5cb5b1461086a5780638f7758391461087f57806398f22c1214610894576101ee565b806348db5f89146107e5578063564b81ef146108165780636158697a1461082b578063719ce73e14610840576101ee565b80632e1a7d4d116101855780633b586869116101545780633b586869146106435780633c1b472f146107735780633d1aab2a146107a65780633f9942ff146107d0576101ee565b80632e1a7d4d146105da578063313ce567146106045780633197cbb61461061957806335a0de571461062e576101ee565b80631db0e667116101c15780631db0e6671461055457806322d8f95d1461057d57806322f3e2d4146105925780632d0335ab146105a7576101ee565b806306fdde03146101f35780630c53c51c1461027d57806313b34f491461033f578063170441d71461052d575b600080fd5b3480156101ff57600080fd5b50610208610b41565b6040805160208082528351818301528351919283929083019185019080838360005b8381101561024257818101518382015260200161022a565b50505050905090810190601f16801561026f5780820380516001836020036101000a031916815260200191505b509250505060405180910390f35b610208600480360360a081101561029357600080fd5b6001600160a01b038235169190810190604081016020820135600160201b8111156102bd57600080fd5b8201836020820111156102cf57600080fd5b803590602001918460018302840111600160201b831117156102f057600080fd5b91908080601f016020809104026020016040519081016040528093929190818152602001838380828437600092019190915250929550508235935050506020810135906040013560ff16610bcf565b34801561034b57600080fd5b5061052b600480360361014081101561036357600080fd5b810190602081018135600160201b81111561037d57600080fd5b82018360208201111561038f57600080fd5b803590602001918460018302840111600160201b831117156103b057600080fd5b91908080601f0160208091040260200160405190810160405280939291908181526020018383808284376000920191909152509295949360208101935035915050600160201b81111561040257600080fd5b82018360208201111561041457600080fd5b803590602001918460018302840111600160201b8311171561043557600080fd5b91908080601f0160208091040260200160405190810160405280939291908181526020018383808284376000920191909152509295843595602086013595919450925060608101915060400135600160201b81111561049357600080fd5b8201836020820111156104a557600080fd5b803590602001918460018302840111600160201b831117156104c657600080fd5b91908080601f0160208091040260200160405190810160405280939291908181526020018383808284376000920191909152509295505082359350505060208101359060408101351515906001600160a01b0360608201358116916080013516610f5a565b005b34801561053957600080fd5b50610542611025565b60408051918252519081900360200190f35b34801561056057600080fd5b5061056961102b565b604080519115158252519081900360200190f35b34801561058957600080fd5b506105426110b2565b34801561059e57600080fd5b506105696110b8565b3480156105b357600080fd5b50610542600480360360208110156105ca57600080fd5b50356001600160a01b03166110c1565b3480156105e657600080fd5b50610569600480360360208110156105fd57600080fd5b50356110dc565b34801561061057600080fd5b50610542611275565b34801561062557600080fd5b5061054261127b565b34801561063a57600080fd5b5061052b611281565b34801561064f57600080fd5b506105696004803603604081101561066657600080fd5b810190602081018135600160201b81111561068057600080fd5b82018360208201111561069257600080fd5b803590602001918460208302840111600160201b831117156106b357600080fd5b9190808060200260200160405190810160405280939291908181526020018383602002808284376000920191909152509295949360208101935035915050600160201b81111561070257600080fd5b82018360208201111561071457600080fd5b803590602001918460208302840111600160201b8311171561073557600080fd5b91908080602002602001604051908101604052809392919081815260200183836020028082843760009201919091525092955061144d945050505050565b34801561077f57600080fd5b506105426004803603602081101561079657600080fd5b50356001600160a01b0316611543565b3480156107b257600080fd5b50610569600480360360208110156107c957600080fd5b5035611555565b3480156107dc57600080fd5b50610569611766565b3480156107f157600080fd5b506107fa61176f565b604080516001600160a01b039092168252519081900360200190f35b34801561082257600080fd5b50610542611784565b34801561083757600080fd5b5061020861178a565b34801561084c57600080fd5b506105426117e5565b34801561086157600080fd5b506105426117eb565b34801561087657600080fd5b506107fa6117f1565b34801561088b57600080fd5b50610569611805565b3480156108a057600080fd5b50610542611813565b3480156108b557600080fd5b50610569600480360360208110156108cc57600080fd5b5035611819565b3480156108df57600080fd5b50610542600480360360208110156108f657600080fd5b50356001600160a01b031661184d565b34801561091257600080fd5b506105696004803603602081101561092957600080fd5b50356001600160a01b031661185f565b34801561094557600080fd5b506109636004803603602081101561095c57600080fd5b5035611874565b60405180806020018060200185815260200180602001848103845288818151815260200191508051906020019080838360005b838110156109ae578181015183820152602001610996565b50505050905090810190601f1680156109db5780820380516001836020036101000a031916815260200191505b50848103835287518152875160209182019189019080838360005b83811015610a0e5781810151838201526020016109f6565b50505050905090810190601f168015610a3b5780820380516001836020036101000a031916815260200191505b50848103825285518152855160209182019187019080838360005b83811015610a6e578181015183820152602001610a56565b50505050905090810190601f168015610a9b5780820380516001836020036101000a031916815260200191505b5097505050505050505060405180910390f35b348015610aba57600080fd5b50610208611a4b565b348015610acf57600080fd5b50610542611aa6565b348015610ae457600080fd5b506107fa60048036036020811015610afb57600080fd5b5035611aac565b348015610b0e57600080fd5b5061096360048036036020811015610b2557600080fd5b5035611ad3565b348015610b3857600080fd5b506107fa611b4e565b6005805460408051602060026001851615610100026000190190941693909304601f81018490048402820184019092528181529291830182828015610bc75780601f10610b9c57610100808354040283529160200191610bc7565b820191906000526020600020905b815481529060010190602001808311610baa57829003601f168201915b505050505081565b60606000610bdc86611b5d565b90506000356001600160e01b03199081169082161415610c2d5760405162461bcd60e51b815260040180806020018281038252603d815260200180611f4b603d913960400191505060405180910390fd5b610c35611e45565b50604080516060810182526001600160a01b03891660008181526002602090815290849020548352820152908101879052610c738882888888611b79565b610cae5760405162461bcd60e51b8152600401808060200182810382526021815260200180611f886021913960400191505060405180910390fd5b6001600160a01b038816600090815260026020526040902054610cd890600163ffffffff611c6616565b600260008a6001600160a01b03166001600160a01b031681526020019081526020016000208190555060006060306001600160a01b0316898b6040516020018083805190602001908083835b60208310610d435780518252601f199092019160209182019101610d24565b6001836020036101000a038019825116818451168082178552505050505050905001826001600160a01b03166001600160a01b031660601b8152601401925050506040516020818303038152906040526040518082805190602001908083835b60208310610dc25780518252601f199092019160209182019101610da3565b6001836020036101000a0380198251168184511680821785525050505050509050019150506000604051808303816000865af19150503d8060008114610e24576040519150601f19603f3d011682016040523d82523d6000602084013e610e29565b606091505b509150915081610e80576040805162461bcd60e51b815260206004820152601c60248201527f46756e6374696f6e2063616c6c206e6f74207375636365737366756c00000000604482015290519081900360640190fd5b7f5845892132946850460bff5a0083f71031bc5bf9aadcd40f1de79423eac9b10b8a338b60405180846001600160a01b03166001600160a01b03168152602001836001600160a01b03166001600160a01b0316815260200180602001828103825283818151815260200191508051906020019080838360005b83811015610f11578181015183820152602001610ef9565b50505050905090810190601f168015610f3e5780820380516001836020036101000a031916815260200191505b5094505050505060405180910390a19998505050505050505050565b6005546002600019610100600184161502019091160415610f7a57600080fd5b6000895111610f8857600080fd5b8951610f9b9060049060208d0190611e6f565b508851610faf9060059060208c0190611e6f565b50600f88905560108790558551610fcd906006906020890190611e6f565b506007949094556008929092556009805460ff191691151591909117610100600160a81b0319166101006001600160a01b0394851602179055600380546001600160a01b031916929091169190911790555050505050565b600e5481565b60095460009061010090046001600160a01b0316611047611cc7565b6001600160a01b03161461105757fe5b601054421061106557600080fd5b60115460ff161561107557600080fd5b6011805460ff191660011790556040517f4cd963a081760a54f571abc0f1db4dde31b4a07d8d6da3e844b8c6f47eeaaa4290600090a15060015b90565b600d5481565b60095460ff1681565b6001600160a01b031660009081526002602052604090205490565b60006010544211806110f0575060115460ff165b6110f957600080fd5b60156000611105611cc7565b6001600160a01b03166001600160a01b031681526020019081526020016000205482111561113257600080fd5b816015600061113f611cc7565b6001600160a01b03166001600160a01b0316815260200190815260200160002054036015600061116d611cc7565b6001600160a01b0390811682526020820192909252604001600020919091556003541663a9059cbb61119d611cc7565b846040518363ffffffff1660e01b815260040180836001600160a01b03166001600160a01b0316815260200182815260200192505050602060405180830381600087803b1580156111ed57600080fd5b505af1158015611201573d6000803e3d6000fd5b505050506040513d602081101561121757600080fd5b505161122257600080fd5b7fb4214c8c54fc7442f36d3682f59aebaf09358a4431835b30efb29d52cf9e1e9161124b611cc7565b604080516001600160a01b039092168252602082018590528051918290030190a15060015b919050565b600c5481565b60105481565b600f546010546040805130808252606082018590526080820184905260c06020830181815260048054600260001961010060018416150201909116049285018390527fe709833c85ca41700c1897b44eeae5b60ac65844320c0c264237e092b25be09e979396909560059591936006939183019060a084019060e08501908a90801561134e5780601f106113235761010080835404028352916020019161134e565b820191906000526020600020905b81548152906001019060200180831161133157829003601f168201915b50508481038352885460026000196101006001841615020190911604808252602090910190899080156113c25780601f10611397576101008083540402835291602001916113c2565b820191906000526020600020905b8154815290600101906020018083116113a557829003601f168201915b50508481038252855460026000196101006001841615020190911604808252602090910190869080156114365780601f1061140b57610100808354040283529160200191611436565b820191906000526020600020905b81548152906001019060200180831161141957829003601f168201915b5050995050505050505050505060405180910390a1565b60095460009061010090046001600160a01b0316611469611cc7565b6001600160a01b03161461147957fe5b601054421161148757600080fd5b60115460ff161561149757600080fd5b60005b83518110156115105760008482815181106114b157fe5b6020908102919091018101516000818152601490925260409091205490915060ff1615611507578382815181106114e457fe5b602002602001015160136000838152602001908152602001600020600201819055505b5060010161149a565b506040517f6d82b6696efd1f35b16d299f438494e06812fe1eb8686d42a8e951e001a3557a90600090a150600192915050565b60166020526000908152604090205481565b6000600f54421061156557600080fd5b60115460ff161561157557600080fd5b8161157f57600080fd5b6000821161158c57600080fd5b60035482906001600160a01b03166370a082316115a7611cc7565b6040518263ffffffff1660e01b815260040180826001600160a01b03166001600160a01b0316815260200191505060206040518083038186803b1580156115ed57600080fd5b505afa158015611601573d6000803e3d6000fd5b505050506040513d602081101561161757600080fd5b50511161162357600080fd5b6003546001600160a01b03166323b872dd61163c611cc7565b604080516001600160e01b031960e085901b1681526001600160a01b039092166004830152306024830152604482018690525160648083019260209291908290030181600087803b15801561169057600080fd5b505af11580156116a4573d6000803e3d6000fd5b505050506040513d60208110156116ba57600080fd5b50516116c557600080fd5b81601560006116d2611cc7565b6001600160a01b03166001600160a01b03168152602001908152602001600020540160156000611700611cc7565b6001600160a01b031681526020810191909152604001600020557f4a099707b4ea52394885dbda60d833d48ce4c67a4e336c3257ed564c686c7043611743611cc7565b604080516001600160a01b039092168252519081900360200190a1506001919050565b60115460ff1681565b6011546201000090046001600160a01b031681565b60015490565b6006805460408051602060026001851615610100026000190190941693909304601f81018490048402820184019092528181529291830182828015610bc75780601f10610b9c57610100808354040283529160200191610bc7565b600b5481565b600f5481565b60095461010090046001600160a01b031681565b601154610100900460ff1681565b60085481565b6000601054421161182957600080fd5b60115460ff161561183957600080fd5b601154610100900460ff166110f957600080fd5b60156020526000908152604090205481565b60176020526000908152604090205460ff1681565b60136020908152600091825260409182902080548351601f6002600019610100600186161502019093169290920491820184900484028101840190945280845290929183919083018282801561190b5780601f106118e05761010080835404028352916020019161190b565b820191906000526020600020905b8154815290600101906020018083116118ee57829003601f168201915b505050505090806001018054600181600116156101000203166002900480601f0160208091040260200160405190810160405280929190818152602001828054600181600116156101000203166002900480156119a95780601f1061197e576101008083540402835291602001916119a9565b820191906000526020600020905b81548152906001019060200180831161198c57829003601f168201915b505050506002838101546003850180546040805160206001841615610100026000190190931695909504601f810183900483028601830190915280855295969295929450909190830182828015611a415780601f10611a1657610100808354040283529160200191611a41565b820191906000526020600020905b815481529060010190602001808311611a2457829003601f168201915b5050505050905084565b6004805460408051602060026001851615610100026000190190941693909304601f81018490048402820184019092528181529291830182828015610bc75780601f10610b9c57610100808354040283529160200191610bc7565b60075481565b60128181548110611ab957fe5b6000918252602090912001546001600160a01b0316905081565b600a8181548110611ae057fe5b60009182526020918290206004919091020180546040805160026001841615610100026000190190931692909204601f81018590048502830185019091528082529193509183919083018282801561190b5780601f106118e05761010080835404028352916020019161190b565b6003546001600160a01b031681565b6000815160001415611b7157506000611270565b506020015190565b6000806001611b8f611b8a88611d24565b611df3565b84878760405160008152602001604052604051808581526020018460ff1660ff1681526020018381526020018281526020019450505050506020604051602081039080840390855afa158015611be9573d6000803e3d6000fd5b5050604051601f1901519150506001600160a01b038116611c45576040805162461bcd60e51b8152602060048201526011602482015270496e76616c6964207369676e617475726560781b604482015290519081900360640190fd5b866001600160a01b0316816001600160a01b03161491505095945050505050565b600082820183811015611cc0576040805162461bcd60e51b815260206004820152601b60248201527f536166654d6174683a206164646974696f6e206f766572666c6f770000000000604482015290519081900360640190fd5b9392505050565b600033301415611d1f5760606000368080601f0160208091040260200160405190810160405280939291908181526020018383808284376000920191909152505050503601516001600160a01b031691506110af9050565b503390565b6000604051806080016040528060438152602001611f0860439139805190602001208260000151836020015184604001516040518082805190602001908083835b60208310611d845780518252601f199092019160209182019101611d65565b51815160001960209485036101000a019081169019919091161790526040805194909201849003842084820199909952838201979097526001600160a01b039095166060830152506080808201969096528351808203909601865260a001909252505081519101209050919050565b6000611dfd611e3f565b82604051602001808061190160f01b81525060020183815260200182815260200192505050604051602081830303815290604052805190602001209050919050565b60005490565b60405180606001604052806000815260200160006001600160a01b03168152602001606081525090565b828054600181600116156101000203166002900490600052602060002090601f016020900481019282601f10611eb057805160ff1916838001178555611edd565b82800160010185558215611edd579182015b82811115611edd578251825591602001919060010190611ec2565b50611ee9929150611eed565b5090565b6110af91905b80821115611ee95760008155600101611ef356fe4d6574615472616e73616374696f6e2875696e74323536206e6f6e63652c616464726573732066726f6d2c62797465732066756e6374696f6e5369676e61747572652966756e6374696f6e5369676e61747572652063616e206e6f74206265206f6620657865637574654d6574615472616e73616374696f6e206d6574686f645369676e657220616e64207369676e617475726520646f206e6f74206d61746368a265627a7a72315820c15ba252f628708128450796bb5ce4214f4c50c058ceb15b8bc727a1135f5d5764736f6c63430005100032454950373132446f6d61696e28737472696e67206e616d652c737472696e672076657273696f6e2c75696e7432353620636861696e49642c6164647265737320766572696679696e67436f6e747261637429",
  "source": "pragma solidity 0.5.16;\n\nimport \"./EIP712MetaTransaction.sol\";\n\ninterface TokenInterface {\n    function totalSupply() external view returns (uint256);\n    function balanceOf(address account) external view returns (uint256);\n    function transfer(address recipient, uint256 amount) external returns (bool);\n    function allowance(address owner, address spender) external view returns (uint256);\n    function approve(address spender, uint256 amount) external returns (bool);\n    function transferFrom(address sender, address recipient, uint256 amount) external returns (bool);\n\n    event Transfer(address indexed from, address indexed to, uint256 value);\n    event Approval(address indexed owner, address indexed spender, uint256 value);\n}\n\ncontract RageContest is EIP712MetaTransaction {\n \n    TokenInterface public token;\n\n    string public contestId;\n    string public name;\n    string public contestTitle;\n    uint256 public contestFees;\n    uint256 public winningAmount;\n \n    bool public isActive;\n    address public owner;\n    \n    Player[] public players;\n\n    uint public prizePool;\n    uint public decimals;\n    \n    uint public maxContestants;\n    uint public minContestants;\n    uint public startTime;\n    uint public endTime;\n    bool public canceled;  \n    bool public settled; \n    address  public player; \n    address[] public contestants; \n    \n    struct Player {\n      string id; \n      string name;\n      uint points;\n      string captain;  //C,VC,P  \n    }\n\n    mapping (uint => Player) public playersData;\n    mapping (uint => bool) internal playersList;\n\n    mapping (address => uint256) public fundsByParticipants;\n    mapping (address => uint256) public fundsByWinners;\n    mapping (address => bool) public participantsList;\n\n    event ContestCanceled();\n    event LogPlay(address player);\n\n    event PlayerDataUpdated();\n    event LogWithdrawal(address withdrawer,  uint amount);\n\n    event ContestCreatedEvent(address sender, string  _id, string  _name,  uint _startTime, uint _endTime, \n                string  _contestTitle);\n    /*\n    * Contract Constructor\n    */\n    constructor(address _adminOwner) \n    public \n    EIP712MetaTransaction(\"RageContestContract\",\"1\", 80001)\n    {  \n                name  =   \"FirstGameofCricket\"; \n                owner =   _adminOwner;                       \n    }\n\n function init(string memory _id, string memory _name,  uint _startTime, uint _endTime, \n                string memory _contestTitle,\n                uint256 _contestFees, \n                uint256 _winningAmount, \n                bool _isActive,\n                address _tokenAddress,\n                address from) public {\n                    \n        require(bytes(name).length == 0); // ensure not init'd already.\n        require(bytes(_name).length > 0);\n\n                contestId       =   _id;\n                name            =   _name;\n                startTime       =   _startTime;\n                endTime         =   _endTime;\n                contestTitle    =   _contestTitle;\n                contestFees     =   _contestFees;\n                winningAmount   =   _winningAmount;\n                isActive        =   _isActive;\n                owner = from;            \n                token = TokenInterface(_tokenAddress);   \n         }\n\n function callContest() public {\n    emit ContestCreatedEvent(address(this), contestId, name, startTime, endTime, contestTitle);\n  }   \n\nfunction withdraw(uint256 _amount)\n        public \n        onlyEndedOrCanceled\n        returns (bool success)\n        {\n            require(_amount <= fundsByParticipants[msgSender()]);\n                fundsByParticipants[msgSender()] = fundsByParticipants[msgSender()] - _amount;\n            \n            require(token.transfer(msgSender(), _amount));\n\n            emit LogWithdrawal(msgSender(), _amount);\n            return true;\n        }\n\n\nfunction withdrawWinningAmount(uint256 _amount)\n        public \n        onlyAfterEnd \n        onlyNotCanceled\n        onlyAfterSettlement\n        returns (bool success)\n        {\n            require(_amount <= fundsByParticipants[msgSender()]);\n            fundsByParticipants[msgSender()] = fundsByParticipants[msgSender()] - _amount;\n            \n            require(token.transfer(msgSender(), _amount));\n\n            emit LogWithdrawal(msgSender(), _amount);\n            return true;\n\n        }\n\n      \nfunction playNow(uint _value)\n        public\n        onlyBeforeStart\n        onlyNotCanceled\n        returns (bool success)\n        {\n        \n        require (_value != 0);\n        require (_value > 0);\n        \n        // transfer play entry fee to the smart contract \n        //\n       \n        require(token.balanceOf(msgSender()) > _value);\n        require(token.transferFrom(msgSender(), address(this), _value));\n        fundsByParticipants[msgSender()] = fundsByParticipants[msgSender()] + _value;\n\n        // other data to be updated\n\n        emit LogPlay(msgSender());\n        return true;\n    }\n\n/*         \nfunction changeTeam(uint _value)\n        public\n        onlyBeforeStart\n        onlyNotCanceled\n        returns (bool success)\n        {\n        \n        emit ChangeTeamDone();\n        return true;\n    }\n*/\n\n/*\n function updateWinningData(address[] memory _winners, uint256[] memory _amount)\n        public\n        onlyOwner\n        onlyAfterEnd\n        onlyNotCanceled\n        returns (bool success)\n    {\n        \n        // update the winning address with\n        // winning amount \n        // and playid \n        // since more than one play is possible from\n        // the same address \n        \n        \n        for (uint i=0; i<_winners.length; i++) {\n            address _winner = _winners[i];\n\n            if(participantsList[_winner]) {\n                // participantsList[_playerId].points =  _points[i]; \n                fundsByWinners[_winner] = \n\n            }\n        }\n      \n\n        emit WinnersDataUpdated();\n        return true;\n    }\n */\n\n function updatePlayerPoints(uint[] memory _playerIds, uint[] memory _points)\n        public\n        onlyOwner\n        onlyAfterEnd\n        onlyNotCanceled\n        returns (bool success)\n    {\n        //\n        // update player points  \n        // \n        \n        for (uint i=0; i<_playerIds.length; i++) {\n            uint _playerId = _playerIds[i];\n\n            if(playersList[_playerId]) {\n                playersData[_playerId].points =  _points[i];   \n            }\n        }\n       \n        emit PlayerDataUpdated();\n        return true;\n    }\n\n\n    // function getContestants ()\n    //     view\n    //     public\n    //     returns(memory address[])\n    //     {\n    //         return contestants;\n    //     }\n      \nfunction cancelContest()\n        public\n        onlyOwner\n        onlyBeforeEnd\n        onlyNotCanceled\n        returns (bool success)\n    {\n        canceled = true;\n\n        emit ContestCanceled();\n        return true;\n    }\n\n\n\n    modifier onlyAfterStart()  {\n        require (block.timestamp > startTime) ;\n        _;\n    }\n\n    modifier onlyBeforeStart() {\n        require (block.timestamp < startTime) ;\n        _;\n    }\n\n    modifier onlyNotCanceled() {\n        require (!canceled);\n        _;\n    }\n\n\n    //     modifier onlyOwner() {\n    //     require(_owner == _msgSender(), \"Ownable: caller is not the owner\");\n    //     _;\n    // }\n\n    modifier onlyBeforeEnd()  {\n        require (block.timestamp < endTime) ;\n        _;\n    }\n\n    modifier onlyAfterEnd()  {\n        require (block.timestamp > endTime) ;\n        _;\n    }\n\n    modifier onlyAfterSettlement() {\n        require (settled) ;\n        _;\n    }\n\n    modifier onlyEndedOrCanceled()   {\n        require (block.timestamp > endTime || canceled) ;\n        _;\n    }\n\n    modifier onlyOwner() {\n        assert (msgSender() == owner) ;\n        _;\n    }\n\n}",
  "sourcePath": "/home/sunil/Projects/Fantasy sports/TransferTokenApp/FactoryContract/contracts/RageContest.sol",
  "compiler": {
    "name": "solc",
    "version": "0.5.16+commit.9c3226ce.Emscripten.clang"
  },
  "schemaVersion": "3.3.4",
  "updatedAt": "2021-03-22T05:35:54.276Z",
  "devdoc": {
    "methods": {}
  },
  "userdoc": {
    "methods": {}
  }
}