{
  "contractName": "RageFactory",
  "abi": [
    {
      "inputs": [
        {
          "internalType": "address",
          "name": "_adminOwner",
          "type": "address"
        },
        {
          "internalType": "address",
          "name": "_libraryAddress",
          "type": "address"
        }
      ],
      "payable": false,
      "stateMutability": "nonpayable",
      "type": "constructor"
    },
    {
      "anonymous": false,
      "inputs": [
        {
          "indexed": false,
          "internalType": "string",
          "name": "name",
          "type": "string"
        },
        {
          "indexed": false,
          "internalType": "address",
          "name": "newContest",
          "type": "address"
        }
      ],
      "name": "ContestCreated",
      "type": "event"
    },
    {
      "anonymous": false,
      "inputs": [
        {
          "indexed": false,
          "internalType": "address",
          "name": "userAddress",
          "type": "address"
        },
        {
          "indexed": false,
          "internalType": "address payable",
          "name": "relayerAddress",
          "type": "address"
        },
        {
          "indexed": false,
          "internalType": "bytes",
          "name": "functionSignature",
          "type": "bytes"
        }
      ],
      "name": "MetaTransactionExecuted",
      "type": "event"
    },
    {
      "constant": true,
      "inputs": [
        {
          "internalType": "uint256",
          "name": "",
          "type": "uint256"
        }
      ],
      "name": "contests",
      "outputs": [
        {
          "internalType": "contract RageContest",
          "name": "",
          "type": "address"
        }
      ],
      "payable": false,
      "stateMutability": "view",
      "type": "function"
    },
    {
      "constant": false,
      "inputs": [
        {
          "internalType": "address",
          "name": "userAddress",
          "type": "address"
        },
        {
          "internalType": "bytes",
          "name": "functionSignature",
          "type": "bytes"
        },
        {
          "internalType": "bytes32",
          "name": "sigR",
          "type": "bytes32"
        },
        {
          "internalType": "bytes32",
          "name": "sigS",
          "type": "bytes32"
        },
        {
          "internalType": "uint8",
          "name": "sigV",
          "type": "uint8"
        }
      ],
      "name": "executeMetaTransaction",
      "outputs": [
        {
          "internalType": "bytes",
          "name": "",
          "type": "bytes"
        }
      ],
      "payable": true,
      "stateMutability": "payable",
      "type": "function"
    },
    {
      "constant": true,
      "inputs": [],
      "name": "getChainID",
      "outputs": [
        {
          "internalType": "uint256",
          "name": "",
          "type": "uint256"
        }
      ],
      "payable": false,
      "stateMutability": "view",
      "type": "function"
    },
    {
      "constant": true,
      "inputs": [
        {
          "internalType": "address",
          "name": "user",
          "type": "address"
        }
      ],
      "name": "getNonce",
      "outputs": [
        {
          "internalType": "uint256",
          "name": "nonce",
          "type": "uint256"
        }
      ],
      "payable": false,
      "stateMutability": "view",
      "type": "function"
    },
    {
      "constant": true,
      "inputs": [],
      "name": "libraryAddress",
      "outputs": [
        {
          "internalType": "address",
          "name": "",
          "type": "address"
        }
      ],
      "payable": false,
      "stateMutability": "view",
      "type": "function"
    },
    {
      "constant": false,
      "inputs": [],
      "name": "onlyCreate",
      "outputs": [],
      "payable": false,
      "stateMutability": "nonpayable",
      "type": "function"
    },
    {
      "constant": false,
      "inputs": [
        {
          "internalType": "string",
          "name": "_id",
          "type": "string"
        },
        {
          "internalType": "string",
          "name": "_name",
          "type": "string"
        },
        {
          "internalType": "uint256",
          "name": "_startTime",
          "type": "uint256"
        },
        {
          "internalType": "uint256",
          "name": "_endTime",
          "type": "uint256"
        },
        {
          "internalType": "string",
          "name": "_contestTitle",
          "type": "string"
        },
        {
          "internalType": "uint256",
          "name": "_contestFees",
          "type": "uint256"
        },
        {
          "internalType": "uint256",
          "name": "_winningAmount",
          "type": "uint256"
        },
        {
          "internalType": "bool",
          "name": "_isActive",
          "type": "bool"
        },
        {
          "internalType": "address",
          "name": "_token",
          "type": "address"
        }
      ],
      "name": "createNewContest",
      "outputs": [],
      "payable": false,
      "stateMutability": "nonpayable",
      "type": "function"
    },
    {
      "constant": true,
      "inputs": [],
      "name": "getContests",
      "outputs": [
        {
          "internalType": "contract RageContest[]",
          "name": "",
          "type": "address[]"
        }
      ],
      "payable": false,
      "stateMutability": "view",
      "type": "function"
    }
  ],
  "bytecode": "0x608060405234801561001057600080fd5b506040516111b73803806111b78339818101604052604081101561003357600080fd5b508051602091820151604080518082018252601381527f52616765466163746f7279436f6e74726163740000000000000000000000000081860152815180830183526001808252603160f81b82880152620138819081905583516080810190945260528085529596949592949193909285928592859290916111659083013980519060200120838051906020012083805190602001206100d761015760201b60201c565b6040805160208082019690965280820194909452606084019290925260808301523060a0808401919091528151808403909101815260c0909201905280519101206000555050600480546001600160a01b039788166001600160a01b03199182161790915560058054969097169516949094179094555061015d92505050565b60015490565b610ff98061016c6000396000f3fe60806040526004361061007b5760003560e01c8063918a8ebc1161004e578063918a8ebc146103f75780639d7ed7381461040c578063b816f51314610452578063bfaba76a146104675761007b565b80630c53c51c146100805780632d0335ab146101b7578063564b81ef146101fc5780637cb0019314610211575b600080fd5b610142600480360360a081101561009657600080fd5b6001600160a01b038235169190810190604081016020820135600160201b8111156100c057600080fd5b8201836020820111156100d257600080fd5b803590602001918460018302840111600160201b831117156100f357600080fd5b91908080601f016020809104026020016040519081016040528093929190818152602001838380828437600092019190915250929550508235935050506020810135906040013560ff166104cc565b6040805160208082528351818301528351919283929083019185019080838360005b8381101561017c578181015183820152602001610164565b50505050905090810190601f1680156101a95780820380516001836020036101000a031916815260200191505b509250505060405180910390f35b3480156101c357600080fd5b506101ea600480360360208110156101da57600080fd5b50356001600160a01b0316610857565b60408051918252519081900360200190f35b34801561020857600080fd5b506101ea610872565b34801561021d57600080fd5b506103f5600480360361012081101561023557600080fd5b810190602081018135600160201b81111561024f57600080fd5b82018360208201111561026157600080fd5b803590602001918460018302840111600160201b8311171561028257600080fd5b91908080601f0160208091040260200160405190810160405280939291908181526020018383808284376000920191909152509295949360208101935035915050600160201b8111156102d457600080fd5b8201836020820111156102e657600080fd5b803590602001918460018302840111600160201b8311171561030757600080fd5b91908080601f0160208091040260200160405190810160405280939291908181526020018383808284376000920191909152509295843595602086013595919450925060608101915060400135600160201b81111561036557600080fd5b82018360208201111561037757600080fd5b803590602001918460018302840111600160201b8311171561039857600080fd5b91908080601f016020809104026020016040519081016040528093929190818152602001838380828437600092019190915250929550508235935050506020810135906040810135151590606001356001600160a01b0316610878565b005b34801561040357600080fd5b506103f5610b68565b34801561041857600080fd5b506104366004803603602081101561042f57600080fd5b5035610b80565b604080516001600160a01b039092168252519081900360200190f35b34801561045e57600080fd5b50610436610ba7565b34801561047357600080fd5b5061047c610bb6565b60408051602080825283518183015283519192839290830191858101910280838360005b838110156104b85781810151838201526020016104a0565b505050509050019250505060405180910390f35b606060006104d986610c18565b90506000356001600160e01b0319908116908216141561052a5760405162461bcd60e51b815260040180806020018281038252603d815260200180610f67603d913960400191505060405180910390fd5b610532610ef9565b50604080516060810182526001600160a01b038916600081815260026020908152908490205483528201529081018790526105708882888888610c38565b6105ab5760405162461bcd60e51b8152600401808060200182810382526021815260200180610fa46021913960400191505060405180910390fd5b6001600160a01b0388166000908152600260205260409020546105d590600163ffffffff610d2516565b600260008a6001600160a01b03166001600160a01b031681526020019081526020016000208190555060006060306001600160a01b0316898b6040516020018083805190602001908083835b602083106106405780518252601f199092019160209182019101610621565b6001836020036101000a038019825116818451168082178552505050505050905001826001600160a01b03166001600160a01b031660601b8152601401925050506040516020818303038152906040526040518082805190602001908083835b602083106106bf5780518252601f1990920191602091820191016106a0565b6001836020036101000a0380198251168184511680821785525050505050509050019150506000604051808303816000865af19150503d8060008114610721576040519150601f19603f3d011682016040523d82523d6000602084013e610726565b606091505b50915091508161077d576040805162461bcd60e51b815260206004820152601c60248201527f46756e6374696f6e2063616c6c206e6f74207375636365737366756c00000000604482015290519081900360640190fd5b7f5845892132946850460bff5a0083f71031bc5bf9aadcd40f1de79423eac9b10b8a338b60405180846001600160a01b03166001600160a01b03168152602001836001600160a01b03166001600160a01b0316815260200180602001828103825283818151815260200191508051906020019080838360005b8381101561080e5781810151838201526020016107f6565b50505050905090810190601f16801561083b5780820380516001836020036101000a031916815260200191505b5094505050505060405180910390a19998505050505050505050565b6001600160a01b031660009081526002602052604090205490565b60015490565b600554600090610890906001600160a01b0316610d86565b9050806001600160a01b031663b268addf8b8b8b8b8b8b8b8b8b6040518a63ffffffff1660e01b81526004018080602001806020018a81526020018981526020018060200188815260200187815260200186151515158152602001856001600160a01b03166001600160a01b0316815260200184810384528d818151815260200191508051906020019080838360005b83811015610938578181015183820152602001610920565b50505050905090810190601f1680156109655780820380516001836020036101000a031916815260200191505b5084810383528c5181528c516020918201918e019080838360005b83811015610998578181015183820152602001610980565b50505050905090810190601f1680156109c55780820380516001836020036101000a031916815260200191505b5084810382528951815289516020918201918b019080838360005b838110156109f85781810151838201526020016109e0565b50505050905090810190601f168015610a255780820380516001836020036101000a031916815260200191505b509c50505050505050505050505050600060405180830381600087803b158015610a4e57600080fd5b505af1158015610a62573d6000803e3d6000fd5b50506003805460018101825560009182527fc2575a0e9e593c00f959f8c92f12db2869c3395a3b0502d05e2516446f71f85b0180546001600160a01b0319166001600160a01b038616908117909155604080516020808201939093528181528e51918101919091528d517f0c2b088fa56b841f12d5dc29a8825d4c289ce5baf43df6f3e50fdf321fa921bd95508e9450869391928392606084019291870191908190849084905b83811015610b21578181015183820152602001610b09565b50505050905090810190601f168015610b4e5780820380516001836020036101000a031916815260200191505b50935050505060405180910390a150505050505050505050565b600554610b7d906001600160a01b0316610d86565b50565b60038181548110610b8d57fe5b6000918252602090912001546001600160a01b0316905081565b6005546001600160a01b031681565b60606003805480602002602001604051908101604052809291908181526020018280548015610c0e57602002820191906000526020600020905b81546001600160a01b03168152600190910190602001808311610bf0575b5050505050905090565b6000815160001415610c2c57506000610c33565b5060208101515b919050565b6000806001610c4e610c4988610dd8565b610ea7565b84878760405160008152602001604052604051808581526020018460ff1660ff1681526020018381526020018281526020019450505050506020604051602081039080840390855afa158015610ca8573d6000803e3d6000fd5b5050604051601f1901519150506001600160a01b038116610d04576040805162461bcd60e51b8152602060048201526011602482015270496e76616c6964207369676e617475726560781b604482015290519081900360640190fd5b866001600160a01b0316816001600160a01b03161491505095945050505050565b600082820183811015610d7f576040805162461bcd60e51b815260206004820152601b60248201527f536166654d6174683a206164646974696f6e206f766572666c6f770000000000604482015290519081900360640190fd5b9392505050565b6000808260601b9050604051733d602d80600a3d3981f3363d3d373d3d3d363d7360601b81528160148201526e5af43d82803e903d91602b57fd5bf360881b60288201526037816000f0949350505050565b6000604051806080016040528060438152602001610f2460439139805190602001208260000151836020015184604001516040518082805190602001908083835b60208310610e385780518252601f199092019160209182019101610e19565b51815160001960209485036101000a019081169019919091161790526040805194909201849003842084820199909952838201979097526001600160a01b039095166060830152506080808201969096528351808203909601865260a001909252505081519101209050919050565b6000610eb1610ef3565b82604051602001808061190160f01b81525060020183815260200182815260200192505050604051602081830303815290604052805190602001209050919050565b60005490565b60405180606001604052806000815260200160006001600160a01b0316815260200160608152509056fe4d6574615472616e73616374696f6e2875696e74323536206e6f6e63652c616464726573732066726f6d2c62797465732066756e6374696f6e5369676e61747572652966756e6374696f6e5369676e61747572652063616e206e6f74206265206f6620657865637574654d6574615472616e73616374696f6e206d6574686f645369676e657220616e64207369676e617475726520646f206e6f74206d61746368a265627a7a723158201eb130c37bbbdfbed94da9535146e0d753f6eb5a79b7c669d66a71163a9f0dc164736f6c63430005100032454950373132446f6d61696e28737472696e67206e616d652c737472696e672076657273696f6e2c75696e7432353620636861696e49642c6164647265737320766572696679696e67436f6e747261637429",
  "source": "pragma solidity 0.5.16;\n\n/**\n * Name    : Rage Factory Contract for managing contests smart contracts \n * Company : Rage.Fan \n * Author  : Saravana Malaichami (saravana at rage.fan)\n * Date    : 20-Feb-2021\n * Version : 0.1 \n */\n\nimport { RageContest } from './RageContest.sol';\nimport \"./EIP712MetaTransaction.sol\";\nimport \"./CloneFactory.sol\";\n\n/**\n* Chain id = 80001 is matic Mumbai test net rpc-mumbai. need to change for main net \n*/\ncontract RageFactory is CloneFactory,  EIP712MetaTransaction {\n    RageContest[] public contests;\n    address private  owner;\n    \n    address public libraryAddress;\n\n    event ContestCreated(string name, address newContest);\n\n    constructor(address _adminOwner, address _libraryAddress) \n    public \n    EIP712MetaTransaction(\"RageFactoryContract\",\"1\", 80001)\n    {\n       owner = _adminOwner;\n       libraryAddress = _libraryAddress;       \n    }\n\n    function onlyCreate() public {\n        createClone(libraryAddress);\n    }\n\n    function createNewContest(string memory _id, string memory _name,  uint _startTime, \n                              uint _endTime, string memory _contestTitle, uint256 _contestFees, \n                              uint256 _winningAmount, bool _isActive, address _token\n                            )\n                            public  {\n\n                   RageContest clone = RageContest(createClone(libraryAddress));\n                   clone.init(_id, _name, _startTime, _endTime,\n                                                          _contestTitle,\n                                                          _contestFees,\n                                                          _winningAmount,\n                                                          _isActive,\n                                                          _token); \n                               \n                contests.push(clone);\n\n                emit ContestCreated(_name, address(clone));\n                \n        }\n\n      function getContests() external view returns (RageContest[] memory) {\n        return contests;\n      }\n\n\n        modifier onlyOwner {\n        assert (msgSender() == owner) ;\n        _;\n    }\n\n}",
  "sourcePath": "/home/sunil/Projects/Fantasy sports/1st April/Rage-Fan-Fantasy-Contracts/contracts/RageFactory.sol",
  "compiler": {
    "name": "solc",
    "version": "0.5.16+commit.9c3226ce.Emscripten.clang"
  },
  "schemaVersion": "3.3.4",
  "updatedAt": "2021-04-05T11:30:51.425Z",
  "networkType": "ethereum",
  "devdoc": {
    "methods": {}
  },
  "userdoc": {
    "methods": {},
    "notice": "Chain id = 80001 is matic Mumbai test net rpc-mumbai. need to change for main net "
  }
}