{
  "contractName": "RageFactory",
  "abi": [
    {
      "inputs": [
        {
          "internalType": "address",
          "name": "_libraryAddress",
          "type": "address"
        }
      ],
      "payable": false,
      "stateMutability": "nonpayable",
      "type": "constructor"
    },
    {
      "anonymous": false,
      "inputs": [
        {
          "indexed": false,
          "internalType": "string",
          "name": "name",
          "type": "string"
        },
        {
          "indexed": false,
          "internalType": "address",
          "name": "newContest",
          "type": "address"
        }
      ],
      "name": "ContestCreated",
      "type": "event"
    },
    {
      "anonymous": false,
      "inputs": [
        {
          "indexed": false,
          "internalType": "address",
          "name": "userAddress",
          "type": "address"
        },
        {
          "indexed": false,
          "internalType": "address payable",
          "name": "relayerAddress",
          "type": "address"
        },
        {
          "indexed": false,
          "internalType": "bytes",
          "name": "functionSignature",
          "type": "bytes"
        }
      ],
      "name": "MetaTransactionExecuted",
      "type": "event"
    },
    {
      "constant": true,
      "inputs": [
        {
          "internalType": "uint256",
          "name": "",
          "type": "uint256"
        }
      ],
      "name": "contests",
      "outputs": [
        {
          "internalType": "address",
          "name": "",
          "type": "address"
        }
      ],
      "payable": false,
      "stateMutability": "view",
      "type": "function"
    },
    {
      "constant": false,
      "inputs": [
        {
          "internalType": "address",
          "name": "userAddress",
          "type": "address"
        },
        {
          "internalType": "bytes",
          "name": "functionSignature",
          "type": "bytes"
        },
        {
          "internalType": "bytes32",
          "name": "sigR",
          "type": "bytes32"
        },
        {
          "internalType": "bytes32",
          "name": "sigS",
          "type": "bytes32"
        },
        {
          "internalType": "uint8",
          "name": "sigV",
          "type": "uint8"
        }
      ],
      "name": "executeMetaTransaction",
      "outputs": [
        {
          "internalType": "bytes",
          "name": "",
          "type": "bytes"
        }
      ],
      "payable": true,
      "stateMutability": "payable",
      "type": "function"
    },
    {
      "constant": true,
      "inputs": [],
      "name": "getChainID",
      "outputs": [
        {
          "internalType": "uint256",
          "name": "id",
          "type": "uint256"
        }
      ],
      "payable": false,
      "stateMutability": "view",
      "type": "function"
    },
    {
      "constant": true,
      "inputs": [
        {
          "internalType": "address",
          "name": "user",
          "type": "address"
        }
      ],
      "name": "getNonce",
      "outputs": [
        {
          "internalType": "uint256",
          "name": "nonce",
          "type": "uint256"
        }
      ],
      "payable": false,
      "stateMutability": "view",
      "type": "function"
    },
    {
      "constant": true,
      "inputs": [],
      "name": "libraryAddress",
      "outputs": [
        {
          "internalType": "address",
          "name": "",
          "type": "address"
        }
      ],
      "payable": false,
      "stateMutability": "view",
      "type": "function"
    },
    {
      "constant": false,
      "inputs": [
        {
          "internalType": "string",
          "name": "_id",
          "type": "string"
        },
        {
          "internalType": "string",
          "name": "_name",
          "type": "string"
        },
        {
          "internalType": "string",
          "name": "_version",
          "type": "string"
        },
        {
          "internalType": "uint256",
          "name": "_chainid",
          "type": "uint256"
        },
        {
          "internalType": "string",
          "name": "_contestTitle",
          "type": "string"
        },
        {
          "internalType": "uint256",
          "name": "_contestFees",
          "type": "uint256"
        },
        {
          "internalType": "uint256",
          "name": "_winningAmount",
          "type": "uint256"
        },
        {
          "internalType": "bool",
          "name": "_isActive",
          "type": "bool"
        },
        {
          "internalType": "address",
          "name": "_token",
          "type": "address"
        }
      ],
      "name": "createNewContest",
      "outputs": [
        {
          "internalType": "address",
          "name": "",
          "type": "address"
        }
      ],
      "payable": false,
      "stateMutability": "nonpayable",
      "type": "function"
    },
    {
      "constant": true,
      "inputs": [],
      "name": "getContests",
      "outputs": [
        {
          "internalType": "address[]",
          "name": "",
          "type": "address[]"
        }
      ],
      "payable": false,
      "stateMutability": "view",
      "type": "function"
    }
  ],
  "bytecode": "0x608060405234801561001057600080fd5b5060405161360e38038061360e8339818101604052602081101561003357600080fd5b5051604080518082018252601381527f52616765466163746f7279436f6e747261637400000000000000000000000000602082810191909152825180840184526001808252603160f81b82840152620138819081905584516080810190955260528086529394919390928592859285926135bc9083013980519060200120838051906020012083805190602001206100cf61016060201b60201c565b6040805160208082019690965280820194909452606084019290925260808301523060a0808401919091528151808403909101815260c0909201905280519101206000555061012c9450506001600160e01b036101661692505050565b600480546001600160a01b039283166001600160a01b031991821617909155600580549390921692169190911790556101c4565b60015490565b6000333014156101be5760606000368080601f0160208091040260200160405190810160405280939291908181526020018383808284376000920191909152505050503601516001600160a01b031691506101c19050565b50335b90565b6133e9806101d36000396000f3fe6080604052600436106200007a5760003560e01c80638adde27e11620000555780638adde27e14620002205780639d7ed73814620004b1578063b816f51314620004df578063bfaba76a14620004f7576200007a565b80630c53c51c146200007f5780632d0335ab14620001bf578063564b81ef1462000208575b600080fd5b62000147600480360360a08110156200009757600080fd5b6001600160a01b038235169190810190604081016020820135600160201b811115620000c257600080fd5b820183602082011115620000d557600080fd5b803590602001918460018302840111600160201b83111715620000f757600080fd5b91908080601f016020809104026020016040519081016040528093929190818152602001838380828437600092019190915250929550508235935050506020810135906040013560ff1662000561565b6040805160208082528351818301528351919283929083019185019080838360005b838110156200018357818101518382015260200162000169565b50505050905090810190601f168015620001b15780820380516001836020036101000a031916815260200191505b509250505060405180910390f35b348015620001cc57600080fd5b50620001f660048036036020811015620001e557600080fd5b50356001600160a01b031662000902565b60408051918252519081900360200190f35b3480156200021557600080fd5b50620001f66200091d565b3480156200022d57600080fd5b506200049560048036036101208110156200024757600080fd5b810190602081018135600160201b8111156200026257600080fd5b8201836020820111156200027557600080fd5b803590602001918460018302840111600160201b831117156200029757600080fd5b91908080601f0160208091040260200160405190810160405280939291908181526020018383808284376000920191909152509295949360208101935035915050600160201b811115620002ea57600080fd5b820183602082011115620002fd57600080fd5b803590602001918460018302840111600160201b831117156200031f57600080fd5b91908080601f0160208091040260200160405190810160405280939291908181526020018383808284376000920191909152509295949360208101935035915050600160201b8111156200037257600080fd5b8201836020820111156200038557600080fd5b803590602001918460018302840111600160201b83111715620003a757600080fd5b91908080601f01602080910402602001604051908101604052809392919081815260200183838082843760009201919091525092958435959094909350604081019250602001359050600160201b8111156200040257600080fd5b8201836020820111156200041557600080fd5b803590602001918460018302840111600160201b831117156200043757600080fd5b91908080601f016020809104026020016040519081016040528093929190818152602001838380828437600092019190915250929550508235935050506020810135906040810135151590606001356001600160a01b031662000923565b604080516001600160a01b039092168252519081900360200190f35b348015620004be57600080fd5b506200049560048036036020811015620004d757600080fd5b503562000c45565b348015620004ec57600080fd5b506200049562000c6d565b3480156200050457600080fd5b506200050f62000c7c565b60408051602080825283518183015283519192839290830191858101910280838360005b838110156200054d57818101518382015260200162000533565b505050509050019250505060405180910390f35b60606000620005708662000ce0565b90506000356001600160e01b03199081169082161415620005c35760405162461bcd60e51b815260040180806020018281038252603d81526020018062003357603d913960400191505060405180910390fd5b620005cd62000f7d565b50604080516060810182526001600160a01b038916600081815260026020908152908490205483528201529081018790526200060d888288888862000d02565b6200064a5760405162461bcd60e51b8152600401808060200182810382526021815260200180620033946021913960400191505060405180910390fd5b6001600160a01b0388166000908152600260205260409020546200067690600163ffffffff62000df516565b600260008a6001600160a01b03166001600160a01b031681526020019081526020016000208190555060006060306001600160a01b0316898b6040516020018083805190602001908083835b60208310620006e35780518252601f199092019160209182019101620006c2565b6001836020036101000a038019825116818451168082178552505050505050905001826001600160a01b03166001600160a01b031660601b8152601401925050506040516020818303038152906040526040518082805190602001908083835b60208310620007645780518252601f19909201916020918201910162000743565b6001836020036101000a0380198251168184511680821785525050505050509050019150506000604051808303816000865af19150503d8060008114620007c8576040519150601f19603f3d011682016040523d82523d6000602084013e620007cd565b606091505b50915091508162000825576040805162461bcd60e51b815260206004820152601c60248201527f46756e6374696f6e2063616c6c206e6f74207375636365737366756c00000000604482015290519081900360640190fd5b7f5845892132946850460bff5a0083f71031bc5bf9aadcd40f1de79423eac9b10b8a338b60405180846001600160a01b03166001600160a01b03168152602001836001600160a01b03166001600160a01b0316815260200180602001828103825283818151815260200191508051906020019080838360005b83811015620008b85781810151838201526020016200089e565b50505050905090810190601f168015620008e65780820380516001836020036101000a031916815260200191505b5094505050505060405180910390a19998505050505050505050565b6001600160a01b031660009081526002602052604090205490565b60015490565b6000808a8a8a8a8a8a8a8a8a6040516200093d9062000fa7565b808060200180602001806020018a81526020018060200189815260200188815260200187151515158152602001866001600160a01b03166001600160a01b0316815260200185810385528e818151815260200191508051906020019080838360005b83811015620009b95781810151838201526020016200099f565b50505050905090810190601f168015620009e75780820380516001836020036101000a031916815260200191505b5085810384528d5181528d516020918201918f019080838360005b8381101562000a1c57818101518382015260200162000a02565b50505050905090810190601f16801562000a4a5780820380516001836020036101000a031916815260200191505b5085810383528c5181528c516020918201918e019080838360005b8381101562000a7f57818101518382015260200162000a65565b50505050905090810190601f16801562000aad5780820380516001836020036101000a031916815260200191505b5085810382528a5181528a516020918201918c019080838360005b8381101562000ae257818101518382015260200162000ac8565b50505050905090810190601f16801562000b105780820380516001836020036101000a031916815260200191505b509d5050505050505050505050505050604051809103906000f08015801562000b3d573d6000803e3d6000fd5b506003805460018101825560009182527fc2575a0e9e593c00f959f8c92f12db2869c3395a3b0502d05e2516446f71f85b0180546001600160a01b0319166001600160a01b038416908117909155604080516020808201939093528181528e51918101919091528d519394507f0c2b088fa56b841f12d5dc29a8825d4c289ce5baf43df6f3e50fdf321fa921bd938e93869383926060840192918701918190849084905b8381101562000bfb57818101518382015260200162000be1565b50505050905090810190601f16801562000c295780820380516001836020036101000a031916815260200191505b50935050505060405180910390a19a9950505050505050505050565b6003818154811062000c5357fe5b6000918252602090912001546001600160a01b0316905081565b6005546001600160a01b031681565b6060600380548060200260200160405190810160405280929190818152602001828054801562000cd657602002820191906000526020600020905b81546001600160a01b0316815260019091019060200180831162000cb7575b5050505050905090565b600081516000141562000cf65750600062000cfd565b5060208101515b919050565b600080600162000d1c62000d168862000e57565b62000f29565b84878760405160008152602001604052604051808581526020018460ff1660ff1681526020018381526020018281526020019450505050506020604051602081039080840390855afa15801562000d77573d6000803e3d6000fd5b5050604051601f1901519150506001600160a01b03811662000dd4576040805162461bcd60e51b8152602060048201526011602482015270496e76616c6964207369676e617475726560781b604482015290519081900360640190fd5b866001600160a01b0316816001600160a01b03161491505095945050505050565b60008282018381101562000e50576040805162461bcd60e51b815260206004820152601b60248201527f536166654d6174683a206164646974696f6e206f766572666c6f770000000000604482015290519081900360640190fd5b9392505050565b60006040518060800160405280604381526020016200331460439139805190602001208260000151836020015184604001516040518082805190602001908083835b6020831062000eba5780518252601f19909201916020918201910162000e99565b51815160001960209485036101000a019081169019919091161790526040805194909201849003842084820199909952838201979097526001600160a01b039095166060830152506080808201969096528351808203909601865260a001909252505081519101209050919050565b600062000f3562000f77565b82604051602001808061190160f01b81525060020183815260200182815260200192505050604051602081830303815290604052805190602001209050919050565b60005490565b60405180606001604052806000815260200160006001600160a01b03168152602001606081525090565b61235e8062000fb68339019056fe60806040523480156200001157600080fd5b506040516200235e3803806200235e83398181016040526101208110156200003857600080fd5b81019080805160405193929190846401000000008211156200005957600080fd5b9083019060208201858111156200006f57600080fd5b82516401000000008111828201881017156200008a57600080fd5b82525081516020918201929091019080838360005b83811015620000b95781810151838201526020016200009f565b50505050905090810190601f168015620000e75780820380516001836020036101000a031916815260200191505b50604052602001805160405193929190846401000000008211156200010b57600080fd5b9083019060208201858111156200012157600080fd5b82516401000000008111828201881017156200013c57600080fd5b82525081516020918201929091019080838360005b838110156200016b57818101518382015260200162000151565b50505050905090810190601f168015620001995780820380516001836020036101000a031916815260200191505b5060405260200180516040519392919084640100000000821115620001bd57600080fd5b908301906020820185811115620001d357600080fd5b8251640100000000811182820188101715620001ee57600080fd5b82525081516020918201929091019080838360005b838110156200021d57818101518382015260200162000203565b50505050905090810190601f1680156200024b5780820380516001836020036101000a031916815260200191505b506040818152602083015192018051929491939192846401000000008211156200027457600080fd5b9083019060208201858111156200028a57600080fd5b8251640100000000811182820188101715620002a557600080fd5b82525081516020918201929091019080838360005b83811015620002d4578181015183820152602001620002ba565b50505050905090810190601f168015620003025780820380516001836020036101000a031916815260200191505b50604081815260208381015184830151606086015160809687015160018c9055968601909452605280865291975095509193928a928a928a9285928592859291906200230c90830139805190602001208380519060200120838051906020012062000372620004bd60201b60201c565b6040805160208082019690965280820194909452606084019290925260808301523060a0808401919091528151808403909101815260c090920190528051910120600055505060055460026000196101006001841615020190911604159350620003df9250505057600080fd5b6000885111620003ee57600080fd5b8851620004039060049060208c019062000523565b508751620004199060059060208b019062000523565b506200042d6001600160e01b03620004c416565b600980546001600160a01b039290921661010002610100600160a81b031990921691909117905584516200046990600690602088019062000523565b506007939093556008919091556009805460ff1916911515919091179055600380546001600160a01b0319166001600160a01b0390921691909117905550506011805461ffff1916905550620005c5915050565b6001545b90565b6000333014156200051e5760606000368080601f0160208091040260200160405190810160405280939291908181526020018383808284376000920191909152505050503601516001600160a01b03169150620004c19050565b503390565b828054600181600116156101000203166002900490600052602060002090601f016020900481019282601f106200056657805160ff191683800117855562000596565b8280016001018555821562000596579182015b828111156200059657825182559160200191906001019062000579565b50620005a4929150620005a8565b5090565b620004c191905b80821115620005a45760008155600101620005af565b611d3780620005d56000396000f3fe6080604052600436106101ee5760003560e01c8063564b81ef1161010d578063a5fe97d8116100a0578063c61438ad1161006f578063c61438ad146108d9578063d54f84cc146108ee578063dfd50f5214610903578063f6ec19c91461092d578063f71d96cb14610966576101ee565b8063a5fe97d8146103ee578063adcfa799146106fe578063b542d6b414610731578063b9f7254d14610764576101ee565b80638119e8ac116100dc5780638119e8ac146106845780638da5cb5b146106bf5780638f775839146106d457806398f22c12146106e9576101ee565b8063564b81ef146106305780636158697a14610645578063719ce73e1461065a57806378e979251461066f576101ee565b8063313ce567116101855780633c1b472f116101545780633c1b472f1461058d5780633d1aab2a146105c05780633f9942ff146105ea57806348db5f89146105ff576101ee565b8063313ce567146104185780633197cbb61461042d57806335a0de57146104425780633b58686914610459576101ee565b806322d8f95d116101c157806322d8f95d1461039157806322f3e2d4146103a65780632d0335ab146103bb5780632e1a7d4d146103ee576101ee565b806306fdde03146101f35780630c53c51c1461027d578063170441d7146103415780631db0e66714610368575b600080fd5b3480156101ff57600080fd5b50610208610990565b6040805160208082528351818301528351919283929083019185019080838360005b8381101561024257818101518382015260200161022a565b50505050905090810190601f16801561026f5780820380516001836020036101000a031916815260200191505b509250505060405180910390f35b610208600480360360a081101561029357600080fd5b6001600160a01b0382351691908101906040810160208201356401000000008111156102be57600080fd5b8201836020820111156102d057600080fd5b803590602001918460018302840111640100000000831117156102f257600080fd5b91908080601f016020809104026020016040519081016040528093929190818152602001838380828437600092019190915250929550508235935050506020810135906040013560ff16610a1e565b34801561034d57600080fd5b50610356610da9565b60408051918252519081900360200190f35b34801561037457600080fd5b5061037d610daf565b604080519115158252519081900360200190f35b34801561039d57600080fd5b50610356610ded565b3480156103b257600080fd5b5061037d610df3565b3480156103c757600080fd5b50610356600480360360208110156103de57600080fd5b50356001600160a01b0316610dfc565b3480156103fa57600080fd5b5061037d6004803603602081101561041157600080fd5b5035610e17565b34801561042457600080fd5b50610356610f95565b34801561043957600080fd5b50610356610f9b565b34801561044e57600080fd5b50610457610fa1565b005b34801561046557600080fd5b5061037d6004803603604081101561047c57600080fd5b81019060208101813564010000000081111561049757600080fd5b8201836020820111156104a957600080fd5b803590602001918460208302840111640100000000831117156104cb57600080fd5b919080806020026020016040519081016040528093929190818152602001838360200280828437600092019190915250929594936020810193503591505064010000000081111561051b57600080fd5b82018360208201111561052d57600080fd5b8035906020019184602083028401116401000000008311171561054f57600080fd5b91908080602002602001604051908101604052809392919081815260200183836020028082843760009201919091525092955061116d945050505050565b34801561059957600080fd5b50610356600480360360208110156105b057600080fd5b50356001600160a01b031661121a565b3480156105cc57600080fd5b5061037d600480360360208110156105e357600080fd5b503561122c565b3480156105f657600080fd5b5061037d611417565b34801561060b57600080fd5b50610614611420565b604080516001600160a01b039092168252519081900360200190f35b34801561063c57600080fd5b50610356611435565b34801561065157600080fd5b5061020861143b565b34801561066657600080fd5b50610356611496565b34801561067b57600080fd5b5061035661149c565b34801561069057600080fd5b50610356600480360360408110156106a757600080fd5b506001600160a01b03813581169160200135166114a2565b3480156106cb57600080fd5b506106146114bf565b3480156106e057600080fd5b5061037d6114d3565b3480156106f557600080fd5b506103566114e1565b34801561070a57600080fd5b506103566004803603602081101561072157600080fd5b50356001600160a01b03166114e7565b34801561073d57600080fd5b5061037d6004803603602081101561075457600080fd5b50356001600160a01b03166114f9565b34801561077057600080fd5b5061078e6004803603602081101561078757600080fd5b503561150e565b60405180806020018060200185815260200180602001848103845288818151815260200191508051906020019080838360005b838110156107d95781810151838201526020016107c1565b50505050905090810190601f1680156108065780820380516001836020036101000a031916815260200191505b50848103835287518152875160209182019189019080838360005b83811015610839578181015183820152602001610821565b50505050905090810190601f1680156108665780820380516001836020036101000a031916815260200191505b50848103825285518152855160209182019187019080838360005b83811015610899578181015183820152602001610881565b50505050905090810190601f1680156108c65780820380516001836020036101000a031916815260200191505b5097505050505050505060405180910390f35b3480156108e557600080fd5b506102086116e5565b3480156108fa57600080fd5b50610356611740565b34801561090f57600080fd5b506106146004803603602081101561092657600080fd5b5035611746565b34801561093957600080fd5b5061037d6004803603604081101561095057600080fd5b506001600160a01b03813516906020013561176d565b34801561097257600080fd5b5061078e6004803603602081101561098957600080fd5b50356118d3565b6005805460408051602060026001851615610100026000190190941693909304601f81018490048402820184019092528181529291830182828015610a165780601f106109eb57610100808354040283529160200191610a16565b820191906000526020600020905b8154815290600101906020018083116109f957829003601f168201915b505050505081565b60606000610a2b8661194e565b90506000356001600160e01b03199081169082161415610a7c5760405162461bcd60e51b815260040180806020018281038252603d815260200180611ca5603d913960400191505060405180910390fd5b610a84611c37565b50604080516060810182526001600160a01b03891660008181526002602090815290849020548352820152908101879052610ac2888288888861196a565b610afd5760405162461bcd60e51b8152600401808060200182810382526021815260200180611ce26021913960400191505060405180910390fd5b6001600160a01b038816600090815260026020526040902054610b2790600163ffffffff611a5716565b600260008a6001600160a01b03166001600160a01b031681526020019081526020016000208190555060006060306001600160a01b0316898b6040516020018083805190602001908083835b60208310610b925780518252601f199092019160209182019101610b73565b6001836020036101000a038019825116818451168082178552505050505050905001826001600160a01b03166001600160a01b031660601b8152601401925050506040516020818303038152906040526040518082805190602001908083835b60208310610c115780518252601f199092019160209182019101610bf2565b6001836020036101000a0380198251168184511680821785525050505050509050019150506000604051808303816000865af19150503d8060008114610c73576040519150601f19603f3d011682016040523d82523d6000602084013e610c78565b606091505b509150915081610ccf576040805162461bcd60e51b815260206004820152601c60248201527f46756e6374696f6e2063616c6c206e6f74207375636365737366756c00000000604482015290519081900360640190fd5b7f5845892132946850460bff5a0083f71031bc5bf9aadcd40f1de79423eac9b10b8a338b60405180846001600160a01b03166001600160a01b03168152602001836001600160a01b03166001600160a01b0316815260200180602001828103825283818151815260200191508051906020019080838360005b83811015610d60578181015183820152602001610d48565b50505050905090810190601f168015610d8d5780820380516001836020036101000a031916815260200191505b5094505050505060405180910390a19998505050505050505050565b600e5481565b6011805460ff191660011790556040516000907f4cd963a081760a54f571abc0f1db4dde31b4a07d8d6da3e844b8c6f47eeaaa42908290a150600190565b600d5481565b60095460ff1681565b6001600160a01b031660009081526002602052604090205490565b600060156000610e25611ab8565b6001600160a01b03166001600160a01b0316815260200190815260200160002054821115610e5257600080fd5b8160156000610e5f611ab8565b6001600160a01b03166001600160a01b03168152602001908152602001600020540360156000610e8d611ab8565b6001600160a01b0390811682526020820192909252604001600020919091556003541663a9059cbb610ebd611ab8565b846040518363ffffffff1660e01b815260040180836001600160a01b03166001600160a01b0316815260200182815260200192505050602060405180830381600087803b158015610f0d57600080fd5b505af1158015610f21573d6000803e3d6000fd5b505050506040513d6020811015610f3757600080fd5b5051610f4257600080fd5b7fb4214c8c54fc7442f36d3682f59aebaf09358a4431835b30efb29d52cf9e1e91610f6b611ab8565b604080516001600160a01b039092168252602082018590528051918290030190a15060015b919050565b600c5481565b60105481565b600f546010546040805130808252606082018590526080820184905260c06020830181815260048054600260001961010060018416150201909116049285018390527fe709833c85ca41700c1897b44eeae5b60ac65844320c0c264237e092b25be09e979396909560059591936006939183019060a084019060e08501908a90801561106e5780601f106110435761010080835404028352916020019161106e565b820191906000526020600020905b81548152906001019060200180831161105157829003601f168201915b50508481038352885460026000196101006001841615020190911604808252602090910190899080156110e25780601f106110b7576101008083540402835291602001916110e2565b820191906000526020600020905b8154815290600101906020018083116110c557829003601f168201915b50508481038252855460026000196101006001841615020190911604808252602090910190869080156111565780601f1061112b57610100808354040283529160200191611156565b820191906000526020600020905b81548152906001019060200180831161113957829003601f168201915b5050995050505050505050505060405180910390a1565b6000805b83518110156111e757600084828151811061118857fe5b6020908102919091018101516000818152601490925260409091205490915060ff16156111de578382815181106111bb57fe5b602002602001015160136000838152602001908152602001600020600201819055505b50600101611171565b506040517f6d82b6696efd1f35b16d299f438494e06812fe1eb8686d42a8e951e001a3557a90600090a150600192915050565b60176020526000908152604090205481565b60008161123857600080fd5b6000821161124557600080fd5b60035482906001600160a01b03166370a08231611260611ab8565b6040518263ffffffff1660e01b815260040180826001600160a01b03166001600160a01b0316815260200191505060206040518083038186803b1580156112a657600080fd5b505afa1580156112ba573d6000803e3d6000fd5b505050506040513d60208110156112d057600080fd5b5051116112dc57600080fd5b6003546001600160a01b03166323b872dd6112f5611ab8565b604080516001600160e01b031960e085901b1681526001600160a01b039092166004830152306024830152604482018690525160648083019260209291908290030181600087803b15801561134957600080fd5b505af115801561135d573d6000803e3d6000fd5b505050506040513d602081101561137357600080fd5b5082905060156000611383611ab8565b6001600160a01b03166001600160a01b031681526020019081526020016000205401601560006113b1611ab8565b6001600160a01b031681526020810191909152604001600020557f4a099707b4ea52394885dbda60d833d48ce4c67a4e336c3257ed564c686c70436113f4611ab8565b604080516001600160a01b039092168252519081900360200190a1506001919050565b60115460ff1681565b6011546201000090046001600160a01b031681565b60015490565b6006805460408051602060026001851615610100026000190190941693909304601f81018490048402820184019092528181529291830182828015610a165780601f106109eb57610100808354040283529160200191610a16565b600b5481565b600f5481565b601660209081526000928352604080842090915290825290205481565b60095461010090046001600160a01b031681565b601154610100900460ff1681565b60085481565b60156020526000908152604090205481565b60186020526000908152604090205460ff1681565b60136020908152600091825260409182902080548351601f600260001961010060018616150201909316929092049182018490048402810184019094528084529092918391908301828280156115a55780601f1061157a576101008083540402835291602001916115a5565b820191906000526020600020905b81548152906001019060200180831161158857829003601f168201915b505050505090806001018054600181600116156101000203166002900480601f0160208091040260200160405190810160405280929190818152602001828054600181600116156101000203166002900480156116435780601f1061161857610100808354040283529160200191611643565b820191906000526020600020905b81548152906001019060200180831161162657829003601f168201915b505050506002838101546003850180546040805160206001841615610100026000190190931695909504601f8101839004830286018301909152808552959692959294509091908301828280156116db5780601f106116b0576101008083540402835291602001916116db565b820191906000526020600020905b8154815290600101906020018083116116be57829003601f168201915b5050505050905084565b6004805460408051602060026001851615610100026000190190941693909304601f81018490048402820184019092528181529291830182828015610a165780601f106109eb57610100808354040283529160200191610a16565b60075481565b6012818154811061175357fe5b6000918252602090912001546001600160a01b0316905081565b60008161177957600080fd5b6000821161178657600080fd5b600354604080516370a0823160e01b81526001600160a01b0386811660048301529151859392909216916370a0823191602480820192602092909190829003018186803b1580156117d657600080fd5b505afa1580156117ea573d6000803e3d6000fd5b505050506040513d602081101561180057600080fd5b50511161180c57600080fd5b6003546040805163095ea7b360e01b81526001600160a01b038681166004830152602482018690529151919092169163095ea7b39160448083019260209291908290030181600087803b15801561186257600080fd5b505af1158015611876573d6000803e3d6000fd5b505050506040513d602081101561188c57600080fd5b5050604080516001600160a01b038516815290517f4fba9d69aabf01ecea4d34e2b13a4d314106cd89b68c0dc24fde04da77dd54bd9181900360200190a150600192915050565b600a81815481106118e057fe5b60009182526020918290206004919091020180546040805160026001841615610100026000190190931692909204601f8101859004850283018501909152808252919350918391908301828280156115a55780601f1061157a576101008083540402835291602001916115a5565b600081516000141561196257506000610f90565b506020015190565b600080600161198061197b88611b16565b611be5565b84878760405160008152602001604052604051808581526020018460ff1660ff1681526020018381526020018281526020019450505050506020604051602081039080840390855afa1580156119da573d6000803e3d6000fd5b5050604051601f1901519150506001600160a01b038116611a36576040805162461bcd60e51b8152602060048201526011602482015270496e76616c6964207369676e617475726560781b604482015290519081900360640190fd5b866001600160a01b0316816001600160a01b03161491505095945050505050565b600082820183811015611ab1576040805162461bcd60e51b815260206004820152601b60248201527f536166654d6174683a206164646974696f6e206f766572666c6f770000000000604482015290519081900360640190fd5b9392505050565b600033301415611b105760606000368080601f0160208091040260200160405190810160405280939291908181526020018383808284376000920191909152505050503601516001600160a01b03169150611b139050565b50335b90565b6000604051806080016040528060438152602001611c6260439139805190602001208260000151836020015184604001516040518082805190602001908083835b60208310611b765780518252601f199092019160209182019101611b57565b51815160001960209485036101000a019081169019919091161790526040805194909201849003842084820199909952838201979097526001600160a01b039095166060830152506080808201969096528351808203909601865260a001909252505081519101209050919050565b6000611bef611c31565b82604051602001808061190160f01b81525060020183815260200182815260200192505050604051602081830303815290604052805190602001209050919050565b60005490565b60405180606001604052806000815260200160006001600160a01b0316815260200160608152509056fe4d6574615472616e73616374696f6e2875696e74323536206e6f6e63652c616464726573732066726f6d2c62797465732066756e6374696f6e5369676e61747572652966756e6374696f6e5369676e61747572652063616e206e6f74206265206f6620657865637574654d6574615472616e73616374696f6e206d6574686f645369676e657220616e64207369676e617475726520646f206e6f74206d61746368a265627a7a723158200fde4e5c2ae83e22b1a2a3d9a7c8b0e976b3468fac57bd0467e8c7c5af6dbfc264736f6c63430005100032454950373132446f6d61696e28737472696e67206e616d652c737472696e672076657273696f6e2c75696e7432353620636861696e49642c6164647265737320766572696679696e67436f6e7472616374294d6574615472616e73616374696f6e2875696e74323536206e6f6e63652c616464726573732066726f6d2c62797465732066756e6374696f6e5369676e61747572652966756e6374696f6e5369676e61747572652063616e206e6f74206265206f6620657865637574654d6574615472616e73616374696f6e206d6574686f645369676e657220616e64207369676e617475726520646f206e6f74206d61746368a265627a7a723158209a44548988751ffb31b5f9f2eaa827cfa9eb5feec65d3be94d8b77884532eba964736f6c63430005100032454950373132446f6d61696e28737472696e67206e616d652c737472696e672076657273696f6e2c75696e7432353620636861696e49642c6164647265737320766572696679696e67436f6e747261637429",
  "source": "pragma solidity 0.5.16;\n\n/**\n * Name    : Rage Factory Contract for managing contests smart contracts \n * Company : Rage.Fan \n * Author  : Saravana Malaichami (saravana at rage.fan)\n * Date    : 20-Feb-2021\n * Version : 0.1 \n */\n\nimport { RageContest } from './RageContest.sol';\nimport \"./EIP712MetaTransaction.sol\";\n\n/**\n* Chain id = 80001 is matic Mumbai test net rpc-mumbai. need to change for main net \n*/\ncontract RageFactory is  EIP712MetaTransaction {\n    address[] public contests;\n    address private  owner;\n    \n    address public libraryAddress;\n\n    event ContestCreated(string name, address newContest);\n\n    constructor( address _libraryAddress) \n    public \n    EIP712MetaTransaction(\"RageFactoryContract\",\"1\", 80001)\n    {\n       owner = msgSender();\n       libraryAddress = _libraryAddress;\n    }\n   \n    function createNewContest(string memory _id, string memory _name, string memory _version, uint256 _chainid, string memory _contestTitle, uint256 _contestFees, \n                              uint256 _winningAmount, bool _isActive, address _token )\n                            public \n                            returns (address)\n                             {\n\n                 RageContest proxy = new RageContest(_id, _name, _version, _chainid, \n                                                          _contestTitle,\n                                                          _contestFees,\n                                                          _winningAmount,\n                                                          _isActive,\n                                                          _token); \n\n                contests.push(address(proxy));\n                emit ContestCreated(_name, address(proxy));\n              return address(proxy);\n        }\n\n      function getContests() external view returns (address[] memory) {\n        return contests;\n      }\n\n\n        modifier onlyOwner {\n        assert (msgSender() == owner) ;\n        _;\n    }\n\n}",
  "sourcePath": "/home/sunil/Projects/Fantasy sports/factoryTest/contracts/RageFactory.sol",
  "compiler": {
    "name": "solc",
    "version": "0.5.16+commit.9c3226ce.Emscripten.clang"
  },
  "schemaVersion": "3.3.4",
  "updatedAt": "2021-04-06T10:42:23.481Z",
  "networkType": "ethereum",
  "devdoc": {
    "methods": {}
  },
  "userdoc": {
    "methods": {},
    "notice": "Chain id = 80001 is matic Mumbai test net rpc-mumbai. need to change for main net "
  }
}