{
  "contractName": "RageFactory",
  "abi": [
    {
      "constant": false,
      "inputs": [
        {
          "name": "userAddress",
          "type": "address"
        },
        {
          "name": "functionSignature",
          "type": "bytes"
        },
        {
          "name": "sigR",
          "type": "bytes32"
        },
        {
          "name": "sigS",
          "type": "bytes32"
        },
        {
          "name": "sigV",
          "type": "uint8"
        }
      ],
      "name": "executeMetaTransaction",
      "outputs": [
        {
          "name": "",
          "type": "bytes"
        }
      ],
      "payable": true,
      "stateMutability": "payable",
      "type": "function"
    },
    {
      "constant": true,
      "inputs": [
        {
          "name": "user",
          "type": "address"
        }
      ],
      "name": "getNonce",
      "outputs": [
        {
          "name": "nonce",
          "type": "uint256"
        }
      ],
      "payable": false,
      "stateMutability": "view",
      "type": "function"
    },
    {
      "constant": true,
      "inputs": [],
      "name": "getChainID",
      "outputs": [
        {
          "name": "id",
          "type": "uint256"
        }
      ],
      "payable": false,
      "stateMutability": "view",
      "type": "function"
    },
    {
      "constant": true,
      "inputs": [],
      "name": "owner",
      "outputs": [
        {
          "name": "",
          "type": "address"
        }
      ],
      "payable": false,
      "stateMutability": "view",
      "type": "function"
    },
    {
      "constant": true,
      "inputs": [
        {
          "name": "",
          "type": "uint256"
        }
      ],
      "name": "contests",
      "outputs": [
        {
          "name": "",
          "type": "address"
        }
      ],
      "payable": false,
      "stateMutability": "view",
      "type": "function"
    },
    {
      "anonymous": false,
      "inputs": [
        {
          "indexed": false,
          "name": "name",
          "type": "string"
        },
        {
          "indexed": false,
          "name": "contestAddress",
          "type": "address"
        }
      ],
      "name": "ContestCreated",
      "type": "event"
    },
    {
      "anonymous": false,
      "inputs": [
        {
          "indexed": false,
          "name": "userAddress",
          "type": "address"
        },
        {
          "indexed": false,
          "name": "relayerAddress",
          "type": "address"
        },
        {
          "indexed": false,
          "name": "functionSignature",
          "type": "bytes"
        }
      ],
      "name": "MetaTransactionExecuted",
      "type": "event"
    },
    {
      "constant": false,
      "inputs": [
        {
          "name": "_id",
          "type": "string"
        },
        {
          "name": "_name",
          "type": "string"
        },
        {
          "name": "_startTime",
          "type": "uint256"
        },
        {
          "name": "_endTime",
          "type": "uint256"
        },
        {
          "name": "_contestTitle",
          "type": "string"
        },
        {
          "name": "_contestFees",
          "type": "uint256"
        },
        {
          "name": "_winningAmount",
          "type": "uint256"
        },
        {
          "name": "_isActive",
          "type": "bool"
        },
        {
          "name": "_tokenAddress",
          "type": "address"
        }
      ],
      "name": "createNewContest",
      "outputs": [
        {
          "name": "",
          "type": "address"
        }
      ],
      "payable": false,
      "stateMutability": "nonpayable",
      "type": "function"
    }
  ],
  "bytecode": "0x60806040526040805190810160405280601381526020017f52616765466163746f7279436f6e7472616374000000000000000000000000008152506040805190810160405280600181526020017f31000000000000000000000000000000000000000000000000000000000000008152506201388182828280600181905550608060405190810160405280605281526020017f454950373132446f6d61696e28737472696e67206e616d652c737472696e672081526020017f76657273696f6e2c75696e7432353620636861696e49642c616464726573732081526020017f766572696679696e67436f6e7472616374290000000000000000000000000000815250805190602001208380519060200120838051906020012061012f6101af640100000000026401000000009004565b30604051602001808681526020018581526020018481526020018381526020018273ffffffffffffffffffffffffffffffffffffffff1673ffffffffffffffffffffffffffffffffffffffff16815260200195505050505050604051602081830303815290604052805190602001206000819055505050505050506101b9565b6000600154905090565b614853806101c86000396000f3fe6080604052600436106200007f576000357c0100000000000000000000000000000000000000000000000000000000900463ffffffff1680630c53c51c14620000845780632d0335ab1462000202578063564b81ef146200026b5780637cb0019314620002995780638da5cb5b14620005315780639d7ed738146200058b575b600080fd5b62000184600480360360a08110156200009c57600080fd5b81019080803573ffffffffffffffffffffffffffffffffffffffff16906020019092919080359060200190640100000000811115620000da57600080fd5b820183602082011115620000ed57600080fd5b803590602001918460018302840111640100000000831117156200011057600080fd5b91908080601f016020809104026020016040519081016040528093929190818152602001838380828437600081840152601f19601f8201169050808301925050505050505091929192908035906020019092919080359060200190929190803560ff1690602001909291905050506200060a565b6040518080602001828103825283818151815260200191508051906020019080838360005b83811015620001c6578082015181840152602081019050620001a9565b50505050905090810190601f168015620001f45780820380516001836020036101000a031916815260200191505b509250505060405180910390f35b3480156200020f57600080fd5b5062000255600480360360208110156200022857600080fd5b81019080803573ffffffffffffffffffffffffffffffffffffffff16906020019092919050505062000bda565b6040518082815260200191505060405180910390f35b3480156200027857600080fd5b506200028362000c23565b6040518082815260200191505060405180910390f35b348015620002a657600080fd5b50620004ef6004803603610120811015620002c057600080fd5b8101908080359060200190640100000000811115620002de57600080fd5b820183602082011115620002f157600080fd5b803590602001918460018302840111640100000000831117156200031457600080fd5b91908080601f016020809104026020016040519081016040528093929190818152602001838380828437600081840152601f19601f820116905080830192505050505050509192919290803590602001906401000000008111156200037857600080fd5b8201836020820111156200038b57600080fd5b80359060200191846001830284011164010000000083111715620003ae57600080fd5b91908080601f016020809104026020016040519081016040528093929190818152602001838380828437600081840152601f19601f8201169050808301925050505050505091929192908035906020019092919080359060200190929190803590602001906401000000008111156200042657600080fd5b8201836020820111156200043957600080fd5b803590602001918460018302840111640100000000831117156200045c57600080fd5b91908080601f016020809104026020016040519081016040528093929190818152602001838380828437600081840152601f19601f8201169050808301925050505050505091929192908035906020019092919080359060200190929190803515159060200190929190803573ffffffffffffffffffffffffffffffffffffffff16906020019092919050505062000c2d565b604051808273ffffffffffffffffffffffffffffffffffffffff1673ffffffffffffffffffffffffffffffffffffffff16815260200191505060405180910390f35b3480156200053e57600080fd5b506200054962000fb8565b604051808273ffffffffffffffffffffffffffffffffffffffff1673ffffffffffffffffffffffffffffffffffffffff16815260200191505060405180910390f35b3480156200059857600080fd5b50620005c860048036036020811015620005b157600080fd5b810190808035906020019092919050505062000fde565b604051808273ffffffffffffffffffffffffffffffffffffffff1673ffffffffffffffffffffffffffffffffffffffff16815260200191505060405180910390f35b6060600062000619866200101d565b90506000357fffffffff00000000000000000000000000000000000000000000000000000000167bffffffffffffffffffffffffffffffffffffffffffffffffffffffff1916817bffffffffffffffffffffffffffffffffffffffffffffffffffffffff1916141515156200071c576040517f08c379a000000000000000000000000000000000000000000000000000000000815260040180806020018281038252603d8152602001807f66756e6374696f6e5369676e61747572652063616e206e6f74206265206f662081526020017f657865637574654d6574615472616e73616374696f6e206d6574686f6400000081525060400191505060405180910390fd5b62000726620014e2565b606060405190810160405280600260008b73ffffffffffffffffffffffffffffffffffffffff1673ffffffffffffffffffffffffffffffffffffffff1681526020019081526020016000205481526020018973ffffffffffffffffffffffffffffffffffffffff168152602001888152509050620007a888828888886200105f565b151562000843576040517f08c379a00000000000000000000000000000000000000000000000000000000081526004018080602001828103825260218152602001807f5369676e657220616e64207369676e617475726520646f206e6f74206d61746381526020017f680000000000000000000000000000000000000000000000000000000000000081525060400191505060405180910390fd5b620008986001600260008b73ffffffffffffffffffffffffffffffffffffffff1673ffffffffffffffffffffffffffffffffffffffff16815260200190815260200160002054620011c190919063ffffffff16565b600260008a73ffffffffffffffffffffffffffffffffffffffff1673ffffffffffffffffffffffffffffffffffffffff16815260200190815260200160002081905550600060603073ffffffffffffffffffffffffffffffffffffffff16898b6040516020018083805190602001908083835b6020831015156200093257805182526020820191506020810190506020830392506200090b565b6001836020036101000a0380198251168184511680821785525050505050509050018273ffffffffffffffffffffffffffffffffffffffff1673ffffffffffffffffffffffffffffffffffffffff166c01000000000000000000000000028152601401925050506040516020818303038152906040526040518082805190602001908083835b602083101515620009df5780518252602082019150602081019050602083039250620009b8565b6001836020036101000a0380198251168184511680821785525050505050509050019150506000604051808303816000865af19150503d806000811462000a43576040519150601f19603f3d011682016040523d82523d6000602084013e62000a48565b606091505b509150915081151562000ac3576040517f08c379a000000000000000000000000000000000000000000000000000000000815260040180806020018281038252601c8152602001807f46756e6374696f6e2063616c6c206e6f74207375636365737366756c0000000081525060200191505060405180910390fd5b7f5845892132946850460bff5a0083f71031bc5bf9aadcd40f1de79423eac9b10b8a338b604051808473ffffffffffffffffffffffffffffffffffffffff1673ffffffffffffffffffffffffffffffffffffffff1681526020018373ffffffffffffffffffffffffffffffffffffffff1673ffffffffffffffffffffffffffffffffffffffff16815260200180602001828103825283818151815260200191508051906020019080838360005b8381101562000b8d57808201518184015260208101905062000b70565b50505050905090810190601f16801562000bbb5780820380516001836020036101000a031916815260200191505b5094505050505060405180910390a18094505050505095945050505050565b6000600260008373ffffffffffffffffffffffffffffffffffffffff1673ffffffffffffffffffffffffffffffffffffffff168152602001908152602001600020549050919050565b6000600154905090565b6000600460009054906101000a900473ffffffffffffffffffffffffffffffffffffffff1673ffffffffffffffffffffffffffffffffffffffff1662000c726200124c565b73ffffffffffffffffffffffffffffffffffffffff1614151562000c9257fe5b60008a8a8a8a8a8a8a8a8a62000ca76200151a565b8080602001806020018a815260200189815260200180602001888152602001878152602001861515151581526020018573ffffffffffffffffffffffffffffffffffffffff1673ffffffffffffffffffffffffffffffffffffffff16815260200184810384528d818151815260200191508051906020019080838360005b8381101562000d4257808201518184015260208101905062000d25565b50505050905090810190601f16801562000d705780820380516001836020036101000a031916815260200191505b5084810383528c818151815260200191508051906020019080838360005b8381101562000dab57808201518184015260208101905062000d8e565b50505050905090810190601f16801562000dd95780820380516001836020036101000a031916815260200191505b50848103825289818151815260200191508051906020019080838360005b8381101562000e1457808201518184015260208101905062000df7565b50505050905090810190601f16801562000e425780820380516001836020036101000a031916815260200191505b509c50505050505050505050505050604051809103906000f08015801562000e6e573d6000803e3d6000fd5b50905060038190806001815401808255809150509060018203906000526020600020016000909192909190916101000a81548173ffffffffffffffffffffffffffffffffffffffff021916908373ffffffffffffffffffffffffffffffffffffffff160217905550507f0c2b088fa56b841f12d5dc29a8825d4c289ce5baf43df6f3e50fdf321fa921bd8a8260405180806020018373ffffffffffffffffffffffffffffffffffffffff1673ffffffffffffffffffffffffffffffffffffffff168152602001828103825284818151815260200191508051906020019080838360005b8381101562000f6e57808201518184015260208101905062000f51565b50505050905090810190601f16801562000f9c5780820380516001836020036101000a031916815260200191505b50935050505060405180910390a1509998505050505050505050565b600460009054906101000a900473ffffffffffffffffffffffffffffffffffffffff1681565b60038181548110151562000fee57fe5b906000526020600020016000915054906101000a900473ffffffffffffffffffffffffffffffffffffffff1681565b60008082511415620010525760007c01000000000000000000000000000000000000000000000000000000000290506200105a565b602082015190505b919050565b600080600162001079620010738862001303565b62001470565b84878760405160008152602001604052604051808581526020018460ff1660ff1681526020018381526020018281526020019450505050506020604051602081039080840390855afa158015620010d4573d6000803e3d6000fd5b505050602060405103519050600073ffffffffffffffffffffffffffffffffffffffff168173ffffffffffffffffffffffffffffffffffffffff161415151562001186576040517f08c379a00000000000000000000000000000000000000000000000000000000081526004018080602001828103825260118152602001807f496e76616c6964207369676e617475726500000000000000000000000000000081525060200191505060405180910390fd5b8673ffffffffffffffffffffffffffffffffffffffff168173ffffffffffffffffffffffffffffffffffffffff161491505095945050505050565b600080828401905083811015151562001242576040517f08c379a000000000000000000000000000000000000000000000000000000000815260040180806020018281038252601b8152602001807f536166654d6174683a206164646974696f6e206f766572666c6f77000000000081525060200191505060405180910390fd5b8091505092915050565b60003073ffffffffffffffffffffffffffffffffffffffff163373ffffffffffffffffffffffffffffffffffffffff161415620012f95760606000368080601f016020809104026020016040519081016040528093929190818152602001838380828437600081840152601f19601f820116905080830192505050505050509050600080369050905073ffffffffffffffffffffffffffffffffffffffff818301511692505050620012fd565b3390505b80905090565b6000608060405190810160405280604381526020017f4d6574615472616e73616374696f6e2875696e74323536206e6f6e63652c616481526020017f64726573732066726f6d2c62797465732066756e6374696f6e5369676e61747581526020017f7265290000000000000000000000000000000000000000000000000000000000815250805190602001208260000151836020015184604001516040518082805190602001908083835b602083101515620013d55780518252602082019150602081019050602083039250620013ae565b6001836020036101000a0380198251168184511680821785525050505050509050019150506040518091039020604051602001808581526020018481526020018373ffffffffffffffffffffffffffffffffffffffff1673ffffffffffffffffffffffffffffffffffffffff168152602001828152602001945050505050604051602081830303815290604052805190602001209050919050565b60006200147c620014d9565b8260405160200180807f190100000000000000000000000000000000000000000000000000000000000081525060020183815260200182815260200192505050604051602081830303815290604052805190602001209050919050565b60008054905090565b60606040519081016040528060008152602001600073ffffffffffffffffffffffffffffffffffffffff168152602001606081525090565b6040516132fc806200152c8339019056fe60806040523480156200001157600080fd5b50604051620032fc380380620032fc83398101806040526101208110156200003857600080fd5b8101908080516401000000008111156200005157600080fd5b828101905060208101848111156200006857600080fd5b81518560018202830111640100000000821117156200008657600080fd5b50509291906020018051640100000000811115620000a357600080fd5b82810190506020810184811115620000ba57600080fd5b8151856001820283011164010000000082111715620000d857600080fd5b5050929190602001805190602001909291908051906020019092919080516401000000008111156200010957600080fd5b828101905060208101848111156200012057600080fd5b81518560018202830111640100000000821117156200013e57600080fd5b5050929190602001805190602001909291908051906020019092919080519060200190929190805190602001909291905050506040805190810160405280601381526020017f52616765466163746f7279436f6e7472616374000000000000000000000000008152506040805190810160405280600181526020017f31000000000000000000000000000000000000000000000000000000000000008152506201388182828280600181905550608060405190810160405280605281526020017f454950373132446f6d61696e28737472696e67206e616d652c737472696e672081526020017f76657273696f6e2c75696e7432353620636861696e49642c616464726573732081526020017f766572696679696e67436f6e747261637429000000000000000000000000000081525080519060200120838051906020012083805190602001206200029e62000443640100000000026401000000009004565b30604051602001808681526020018581526020018481526020018381526020018273ffffffffffffffffffffffffffffffffffffffff1673ffffffffffffffffffffffffffffffffffffffff168152602001955050505050506040516020818303038152906040528051906020012060008190555050505050505088600490805190602001906200033192919062000504565b5087600590805190602001906200034a92919062000504565b5086600f819055508560108190555084600690805190602001906200037192919062000504565b50836007819055508260088190555081600960006101000a81548160ff021916908315150217905550620003b36200044d640100000000026401000000009004565b600960016101000a81548173ffffffffffffffffffffffffffffffffffffffff021916908373ffffffffffffffffffffffffffffffffffffffff16021790555080600360006101000a81548173ffffffffffffffffffffffffffffffffffffffff021916908373ffffffffffffffffffffffffffffffffffffffff160217905550505050505050505050620005b3565b6000600154905090565b60003073ffffffffffffffffffffffffffffffffffffffff163373ffffffffffffffffffffffffffffffffffffffff161415620004fa5760606000368080601f016020809104026020016040519081016040528093929190818152602001838380828437600081840152601f19601f820116905080830192505050505050509050600080369050905073ffffffffffffffffffffffffffffffffffffffff818301511692505050620004fe565b3390505b80905090565b828054600181600116156101000203166002900490600052602060002090601f016020900481019282601f106200054757805160ff191683800117855562000578565b8280016001018555821562000578579182015b82811115620005775782518255916020019190600101906200055a565b5b5090506200058791906200058b565b5090565b620005b091905b80821115620005ac57600081600090555060010162000592565b5090565b90565b612d3980620005c36000396000f3fe60806040526004361061018b576000357c0100000000000000000000000000000000000000000000000000000000900463ffffffff16806306fdde03146101905780630c53c51c14610220578063170441d7146103955780631db0e667146103c057806322d8f95d146103ef57806322f3e2d41461041a5780632d0335ab146104495780632e1a7d4d146104ae578063313ce567146105015780633197cbb61461052c5780633b586869146105575780633c1b472f146106c85780633d1aab2a1461072d5780633f9942ff1461078057806348db5f89146107af578063564b81ef146108065780636158697a14610831578063719ce73e146108c157806378e97925146108ec5780638da5cb5b146109175780638f7758391461096e57806398f22c121461099d578063a5fe97d8146109c8578063adcfa79914610a1b578063b542d6b414610a80578063b9f7254d14610ae9578063c61438ad14610c7c578063d54f84cc14610d0c578063dfd50f5214610d37578063f71d96cb14610db2578063fc0c546a14610f45575b600080fd5b34801561019c57600080fd5b506101a5610f9c565b6040518080602001828103825283818151815260200191508051906020019080838360005b838110156101e55780820151818401526020810190506101ca565b50505050905090810190601f1680156102125780820380516001836020036101000a031916815260200191505b509250505060405180910390f35b61031a600480360360a081101561023657600080fd5b81019080803573ffffffffffffffffffffffffffffffffffffffff1690602001909291908035906020019064010000000081111561027357600080fd5b82018360208201111561028557600080fd5b803590602001918460018302840111640100000000831117156102a757600080fd5b91908080601f016020809104026020016040519081016040528093929190818152602001838380828437600081840152601f19601f8201169050808301925050505050505091929192908035906020019092919080359060200190929190803560ff16906020019092919050505061103a565b6040518080602001828103825283818151815260200191508051906020019080838360005b8381101561035a57808201518184015260208101905061033f565b50505050905090810190601f1680156103875780820380516001836020036101000a031916815260200191505b509250505060405180910390f35b3480156103a157600080fd5b506103aa6115f6565b6040518082815260200191505060405180910390f35b3480156103cc57600080fd5b506103d56115fc565b604051808215151515815260200191505060405180910390f35b3480156103fb57600080fd5b506104046116d8565b6040518082815260200191505060405180910390f35b34801561042657600080fd5b5061042f6116de565b604051808215151515815260200191505060405180910390f35b34801561045557600080fd5b506104986004803603602081101561046c57600080fd5b81019080803573ffffffffffffffffffffffffffffffffffffffff1690602001909291905050506116f1565b6040518082815260200191505060405180910390f35b3480156104ba57600080fd5b506104e7600480360360208110156104d157600080fd5b810190808035906020019092919050505061173a565b604051808215151515815260200191505060405180910390f35b34801561050d57600080fd5b506105166119d8565b6040518082815260200191505060405180910390f35b34801561053857600080fd5b506105416119de565b6040518082815260200191505060405180910390f35b34801561056357600080fd5b506106ae6004803603604081101561057a57600080fd5b810190808035906020019064010000000081111561059757600080fd5b8201836020820111156105a957600080fd5b803590602001918460208302840111640100000000831117156105cb57600080fd5b919080806020026020016040519081016040528093929190818152602001838360200280828437600081840152601f19601f8201169050808301925050505050505091929192908035906020019064010000000081111561062b57600080fd5b82018360208201111561063d57600080fd5b8035906020019184602083028401116401000000008311171561065f57600080fd5b919080806020026020016040519081016040528093929190818152602001838360200280828437600081840152601f19601f8201169050808301925050505050505091929192905050506119e4565b604051808215151515815260200191505060405180910390f35b3480156106d457600080fd5b50610717600480360360208110156106eb57600080fd5b81019080803573ffffffffffffffffffffffffffffffffffffffff169060200190929190505050611b3b565b6040518082815260200191505060405180910390f35b34801561073957600080fd5b506107666004803603602081101561075057600080fd5b8101908080359060200190929190505050611b53565b604051808215151515815260200191505060405180910390f35b34801561078c57600080fd5b50610795611ef6565b604051808215151515815260200191505060405180910390f35b3480156107bb57600080fd5b506107c4611f09565b604051808273ffffffffffffffffffffffffffffffffffffffff1673ffffffffffffffffffffffffffffffffffffffff16815260200191505060405180910390f35b34801561081257600080fd5b5061081b611f2f565b6040518082815260200191505060405180910390f35b34801561083d57600080fd5b50610846611f39565b6040518080602001828103825283818151815260200191508051906020019080838360005b8381101561088657808201518184015260208101905061086b565b50505050905090810190601f1680156108b35780820380516001836020036101000a031916815260200191505b509250505060405180910390f35b3480156108cd57600080fd5b506108d6611fd7565b6040518082815260200191505060405180910390f35b3480156108f857600080fd5b50610901611fdd565b6040518082815260200191505060405180910390f35b34801561092357600080fd5b5061092c611fe3565b604051808273ffffffffffffffffffffffffffffffffffffffff1673ffffffffffffffffffffffffffffffffffffffff16815260200191505060405180910390f35b34801561097a57600080fd5b50610983612009565b604051808215151515815260200191505060405180910390f35b3480156109a957600080fd5b506109b261201c565b6040518082815260200191505060405180910390f35b3480156109d457600080fd5b50610a01600480360360208110156109eb57600080fd5b8101908080359060200190929190505050612022565b604051808215151515815260200191505060405180910390f35b348015610a2757600080fd5b50610a6a60048036036020811015610a3e57600080fd5b81019080803573ffffffffffffffffffffffffffffffffffffffff1690602001909291905050506122e0565b6040518082815260200191505060405180910390f35b348015610a8c57600080fd5b50610acf60048036036020811015610aa357600080fd5b81019080803573ffffffffffffffffffffffffffffffffffffffff1690602001909291905050506122f8565b604051808215151515815260200191505060405180910390f35b348015610af557600080fd5b50610b2260048036036020811015610b0c57600080fd5b8101908080359060200190929190505050612318565b60405180806020018060200185815260200180602001848103845288818151815260200191508051906020019080838360005b83811015610b70578082015181840152602081019050610b55565b50505050905090810190601f168015610b9d5780820380516001836020036101000a031916815260200191505b50848103835287818151815260200191508051906020019080838360005b83811015610bd6578082015181840152602081019050610bbb565b50505050905090810190601f168015610c035780820380516001836020036101000a031916815260200191505b50848103825285818151815260200191508051906020019080838360005b83811015610c3c578082015181840152602081019050610c21565b50505050905090810190601f168015610c695780820380516001836020036101000a031916815260200191505b5097505050505050505060405180910390f35b348015610c8857600080fd5b50610c91612510565b6040518080602001828103825283818151815260200191508051906020019080838360005b83811015610cd1578082015181840152602081019050610cb6565b50505050905090810190601f168015610cfe5780820380516001836020036101000a031916815260200191505b509250505060405180910390f35b348015610d1857600080fd5b50610d216125ae565b6040518082815260200191505060405180910390f35b348015610d4357600080fd5b50610d7060048036036020811015610d5a57600080fd5b81019080803590602001909291905050506125b4565b604051808273ffffffffffffffffffffffffffffffffffffffff1673ffffffffffffffffffffffffffffffffffffffff16815260200191505060405180910390f35b348015610dbe57600080fd5b50610deb60048036036020811015610dd557600080fd5b81019080803590602001909291905050506125f2565b60405180806020018060200185815260200180602001848103845288818151815260200191508051906020019080838360005b83811015610e39578082015181840152602081019050610e1e565b50505050905090810190601f168015610e665780820380516001836020036101000a031916815260200191505b50848103835287818151815260200191508051906020019080838360005b83811015610e9f578082015181840152602081019050610e84565b50505050905090810190601f168015610ecc5780820380516001836020036101000a031916815260200191505b50848103825285818151815260200191508051906020019080838360005b83811015610f05578082015181840152602081019050610eea565b50505050905090810190601f168015610f325780820380516001836020036101000a031916815260200191505b5097505050505050505060405180910390f35b348015610f5157600080fd5b50610f5a6127f9565b604051808273ffffffffffffffffffffffffffffffffffffffff1673ffffffffffffffffffffffffffffffffffffffff16815260200191505060405180910390f35b60058054600181600116156101000203166002900480601f0160208091040260200160405190810160405280929190818152602001828054600181600116156101000203166002900480156110325780601f1061100757610100808354040283529160200191611032565b820191906000526020600020905b81548152906001019060200180831161101557829003601f168201915b505050505081565b606060006110478661281f565b90506000357fffffffff00000000000000000000000000000000000000000000000000000000167bffffffffffffffffffffffffffffffffffffffffffffffffffffffff1916817bffffffffffffffffffffffffffffffffffffffffffffffffffffffff191614151515611149576040517f08c379a000000000000000000000000000000000000000000000000000000000815260040180806020018281038252603d8152602001807f66756e6374696f6e5369676e61747572652063616e206e6f74206265206f662081526020017f657865637574654d6574615472616e73616374696f6e206d6574686f6400000081525060400191505060405180910390fd5b611151612cd5565b606060405190810160405280600260008b73ffffffffffffffffffffffffffffffffffffffff1673ffffffffffffffffffffffffffffffffffffffff1681526020019081526020016000205481526020018973ffffffffffffffffffffffffffffffffffffffff1681526020018881525090506111d1888288888861285f565b151561126b576040517f08c379a00000000000000000000000000000000000000000000000000000000081526004018080602001828103825260218152602001807f5369676e657220616e64207369676e617475726520646f206e6f74206d61746381526020017f680000000000000000000000000000000000000000000000000000000000000081525060400191505060405180910390fd5b6112be6001600260008b73ffffffffffffffffffffffffffffffffffffffff1673ffffffffffffffffffffffffffffffffffffffff168152602001908152602001600020546129bb90919063ffffffff16565b600260008a73ffffffffffffffffffffffffffffffffffffffff1673ffffffffffffffffffffffffffffffffffffffff16815260200190815260200160002081905550600060603073ffffffffffffffffffffffffffffffffffffffff16898b6040516020018083805190602001908083835b6020831015156113565780518252602082019150602081019050602083039250611331565b6001836020036101000a0380198251168184511680821785525050505050509050018273ffffffffffffffffffffffffffffffffffffffff1673ffffffffffffffffffffffffffffffffffffffff166c01000000000000000000000000028152601401925050506040516020818303038152906040526040518082805190602001908083835b60208310151561140157805182526020820191506020810190506020830392506113dc565b6001836020036101000a0380198251168184511680821785525050505050509050019150506000604051808303816000865af19150503d8060008114611463576040519150601f19603f3d011682016040523d82523d6000602084013e611468565b606091505b50915091508115156114e2576040517f08c379a000000000000000000000000000000000000000000000000000000000815260040180806020018281038252601c8152602001807f46756e6374696f6e2063616c6c206e6f74207375636365737366756c0000000081525060200191505060405180910390fd5b7f5845892132946850460bff5a0083f71031bc5bf9aadcd40f1de79423eac9b10b8a338b604051808473ffffffffffffffffffffffffffffffffffffffff1673ffffffffffffffffffffffffffffffffffffffff1681526020018373ffffffffffffffffffffffffffffffffffffffff1673ffffffffffffffffffffffffffffffffffffffff16815260200180602001828103825283818151815260200191508051906020019080838360005b838110156115aa57808201518184015260208101905061158f565b50505050905090810190601f1680156115d75780820380516001836020036101000a031916815260200191505b5094505050505060405180910390a18094505050505095945050505050565b600e5481565b6000600960019054906101000a900473ffffffffffffffffffffffffffffffffffffffff1673ffffffffffffffffffffffffffffffffffffffff1661163f612a45565b73ffffffffffffffffffffffffffffffffffffffff1614151561165e57fe5b6010544210151561166e57600080fd5b601160009054906101000a900460ff1615151561168a57600080fd5b6001601160006101000a81548160ff0219169083151502179055507f4cd963a081760a54f571abc0f1db4dde31b4a07d8d6da3e844b8c6f47eeaaa4260405160405180910390a16001905090565b600d5481565b600960009054906101000a900460ff1681565b6000600260008373ffffffffffffffffffffffffffffffffffffffff1673ffffffffffffffffffffffffffffffffffffffff168152602001908152602001600020549050919050565b60006010544211806117585750601160009054906101000a900460ff165b151561176357600080fd5b6015600061176f612a45565b73ffffffffffffffffffffffffffffffffffffffff1673ffffffffffffffffffffffffffffffffffffffff1681526020019081526020016000205482111515156117b857600080fd5b81601560006117c5612a45565b73ffffffffffffffffffffffffffffffffffffffff1673ffffffffffffffffffffffffffffffffffffffff16815260200190815260200160002054036015600061180d612a45565b73ffffffffffffffffffffffffffffffffffffffff1673ffffffffffffffffffffffffffffffffffffffff16815260200190815260200160002081905550600360009054906101000a900473ffffffffffffffffffffffffffffffffffffffff1673ffffffffffffffffffffffffffffffffffffffff1663a9059cbb611891612a45565b846040518363ffffffff167c0100000000000000000000000000000000000000000000000000000000028152600401808373ffffffffffffffffffffffffffffffffffffffff1673ffffffffffffffffffffffffffffffffffffffff16815260200182815260200192505050602060405180830381600087803b15801561191757600080fd5b505af115801561192b573d6000803e3d6000fd5b505050506040513d602081101561194157600080fd5b8101908080519060200190929190505050151561195d57600080fd5b7fb4214c8c54fc7442f36d3682f59aebaf09358a4431835b30efb29d52cf9e1e91611986612a45565b83604051808373ffffffffffffffffffffffffffffffffffffffff1673ffffffffffffffffffffffffffffffffffffffff1681526020018281526020019250505060405180910390a160019050919050565b600c5481565b60105481565b6000600960019054906101000a900473ffffffffffffffffffffffffffffffffffffffff1673ffffffffffffffffffffffffffffffffffffffff16611a27612a45565b73ffffffffffffffffffffffffffffffffffffffff16141515611a4657fe5b60105442111515611a5657600080fd5b601160009054906101000a900460ff16151515611a7257600080fd5b60008090505b8351811015611b045760008482815181101515611a9157fe5b9060200190602002015190506014600082815260200190815260200160002060009054906101000a900460ff1615611af6578382815181101515611ad157fe5b9060200190602002015160136000838152602001908152602001600020600201819055505b508080600101915050611a78565b507f6d82b6696efd1f35b16d299f438494e06812fe1eb8686d42a8e951e001a3557a60405160405180910390a16001905092915050565b60166020528060005260406000206000915090505481565b6000600f5442101515611b6557600080fd5b601160009054906101000a900460ff16151515611b8157600080fd5b60008214151515611b9157600080fd5b600082111515611ba057600080fd5b81600360009054906101000a900473ffffffffffffffffffffffffffffffffffffffff1673ffffffffffffffffffffffffffffffffffffffff166370a08231611be7612a45565b6040518263ffffffff167c0100000000000000000000000000000000000000000000000000000000028152600401808273ffffffffffffffffffffffffffffffffffffffff1673ffffffffffffffffffffffffffffffffffffffff16815260200191505060206040518083038186803b158015611c6357600080fd5b505afa158015611c77573d6000803e3d6000fd5b505050506040513d6020811015611c8d57600080fd5b8101908080519060200190929190505050111515611caa57600080fd5b600360009054906101000a900473ffffffffffffffffffffffffffffffffffffffff1673ffffffffffffffffffffffffffffffffffffffff166323b872dd611cf0612a45565b30856040518463ffffffff167c0100000000000000000000000000000000000000000000000000000000028152600401808473ffffffffffffffffffffffffffffffffffffffff1673ffffffffffffffffffffffffffffffffffffffff1681526020018373ffffffffffffffffffffffffffffffffffffffff1673ffffffffffffffffffffffffffffffffffffffff1681526020018281526020019350505050602060405180830381600087803b158015611daa57600080fd5b505af1158015611dbe573d6000803e3d6000fd5b505050506040513d6020811015611dd457600080fd5b81019080805190602001909291905050501515611df057600080fd5b8160156000611dfd612a45565b73ffffffffffffffffffffffffffffffffffffffff1673ffffffffffffffffffffffffffffffffffffffff168152602001908152602001600020540160156000611e45612a45565b73ffffffffffffffffffffffffffffffffffffffff1673ffffffffffffffffffffffffffffffffffffffff168152602001908152602001600020819055507f4a099707b4ea52394885dbda60d833d48ce4c67a4e336c3257ed564c686c7043611eac612a45565b604051808273ffffffffffffffffffffffffffffffffffffffff1673ffffffffffffffffffffffffffffffffffffffff16815260200191505060405180910390a160019050919050565b601160009054906101000a900460ff1681565b601160029054906101000a900473ffffffffffffffffffffffffffffffffffffffff1681565b6000600154905090565b60068054600181600116156101000203166002900480601f016020809104026020016040519081016040528092919081815260200182805460018160011615610100020316600290048015611fcf5780601f10611fa457610100808354040283529160200191611fcf565b820191906000526020600020905b815481529060010190602001808311611fb257829003601f168201915b505050505081565b600b5481565b600f5481565b600960019054906101000a900473ffffffffffffffffffffffffffffffffffffffff1681565b601160019054906101000a900460ff1681565b60085481565b60006010544211151561203457600080fd5b601160009054906101000a900460ff1615151561205057600080fd5b601160019054906101000a900460ff16151561206b57600080fd5b60156000612077612a45565b73ffffffffffffffffffffffffffffffffffffffff1673ffffffffffffffffffffffffffffffffffffffff1681526020019081526020016000205482111515156120c057600080fd5b81601560006120cd612a45565b73ffffffffffffffffffffffffffffffffffffffff1673ffffffffffffffffffffffffffffffffffffffff168152602001908152602001600020540360156000612115612a45565b73ffffffffffffffffffffffffffffffffffffffff1673ffffffffffffffffffffffffffffffffffffffff16815260200190815260200160002081905550600360009054906101000a900473ffffffffffffffffffffffffffffffffffffffff1673ffffffffffffffffffffffffffffffffffffffff1663a9059cbb612199612a45565b846040518363ffffffff167c0100000000000000000000000000000000000000000000000000000000028152600401808373ffffffffffffffffffffffffffffffffffffffff1673ffffffffffffffffffffffffffffffffffffffff16815260200182815260200192505050602060405180830381600087803b15801561221f57600080fd5b505af1158015612233573d6000803e3d6000fd5b505050506040513d602081101561224957600080fd5b8101908080519060200190929190505050151561226557600080fd5b7fb4214c8c54fc7442f36d3682f59aebaf09358a4431835b30efb29d52cf9e1e9161228e612a45565b83604051808373ffffffffffffffffffffffffffffffffffffffff1673ffffffffffffffffffffffffffffffffffffffff1681526020018281526020019250505060405180910390a160019050919050565b60156020528060005260406000206000915090505481565b60176020528060005260406000206000915054906101000a900460ff1681565b6013602052806000526040600020600091509050806000018054600181600116156101000203166002900480601f0160208091040260200160405190810160405280929190818152602001828054600181600116156101000203166002900480156123c45780601f10612399576101008083540402835291602001916123c4565b820191906000526020600020905b8154815290600101906020018083116123a757829003601f168201915b505050505090806001018054600181600116156101000203166002900480601f0160208091040260200160405190810160405280929190818152602001828054600181600116156101000203166002900480156124625780601f1061243757610100808354040283529160200191612462565b820191906000526020600020905b81548152906001019060200180831161244557829003601f168201915b505050505090806002015490806003018054600181600116156101000203166002900480601f0160208091040260200160405190810160405280929190818152602001828054600181600116156101000203166002900480156125065780601f106124db57610100808354040283529160200191612506565b820191906000526020600020905b8154815290600101906020018083116124e957829003601f168201915b5050505050905084565b60048054600181600116156101000203166002900480601f0160208091040260200160405190810160405280929190818152602001828054600181600116156101000203166002900480156125a65780601f1061257b576101008083540402835291602001916125a6565b820191906000526020600020905b81548152906001019060200180831161258957829003601f168201915b505050505081565b60075481565b6012818154811015156125c357fe5b906000526020600020016000915054906101000a900473ffffffffffffffffffffffffffffffffffffffff1681565b600a8181548110151561260157fe5b9060005260206000209060040201600091509050806000018054600181600116156101000203166002900480601f0160208091040260200160405190810160405280929190818152602001828054600181600116156101000203166002900480156126ad5780601f10612682576101008083540402835291602001916126ad565b820191906000526020600020905b81548152906001019060200180831161269057829003601f168201915b505050505090806001018054600181600116156101000203166002900480601f01602080910402602001604051908101604052809291908181526020018280546001816001161561010002031660029004801561274b5780601f106127205761010080835404028352916020019161274b565b820191906000526020600020905b81548152906001019060200180831161272e57829003601f168201915b505050505090806002015490806003018054600181600116156101000203166002900480601f0160208091040260200160405190810160405280929190818152602001828054600181600116156101000203166002900480156127ef5780601f106127c4576101008083540402835291602001916127ef565b820191906000526020600020905b8154815290600101906020018083116127d257829003601f168201915b5050505050905084565b600360009054906101000a900473ffffffffffffffffffffffffffffffffffffffff1681565b600080825114156128525760007c010000000000000000000000000000000000000000000000000000000002905061285a565b602082015190505b919050565b600080600161287561287088612afa565b612c65565b84878760405160008152602001604052604051808581526020018460ff1660ff1681526020018381526020018281526020019450505050506020604051602081039080840390855afa1580156128cf573d6000803e3d6000fd5b505050602060405103519050600073ffffffffffffffffffffffffffffffffffffffff168173ffffffffffffffffffffffffffffffffffffffff1614151515612980576040517f08c379a00000000000000000000000000000000000000000000000000000000081526004018080602001828103825260118152602001807f496e76616c6964207369676e617475726500000000000000000000000000000081525060200191505060405180910390fd5b8673ffffffffffffffffffffffffffffffffffffffff168173ffffffffffffffffffffffffffffffffffffffff161491505095945050505050565b6000808284019050838110151515612a3b576040517f08c379a000000000000000000000000000000000000000000000000000000000815260040180806020018281038252601b8152602001807f536166654d6174683a206164646974696f6e206f766572666c6f77000000000081525060200191505060405180910390fd5b8091505092915050565b60003073ffffffffffffffffffffffffffffffffffffffff163373ffffffffffffffffffffffffffffffffffffffff161415612af05760606000368080601f016020809104026020016040519081016040528093929190818152602001838380828437600081840152601f19601f820116905080830192505050505050509050600080369050905073ffffffffffffffffffffffffffffffffffffffff818301511692505050612af4565b3390505b80905090565b6000608060405190810160405280604381526020017f4d6574615472616e73616374696f6e2875696e74323536206e6f6e63652c616481526020017f64726573732066726f6d2c62797465732066756e6374696f6e5369676e61747581526020017f7265290000000000000000000000000000000000000000000000000000000000815250805190602001208260000151836020015184604001516040518082805190602001908083835b602083101515612bca5780518252602082019150602081019050602083039250612ba5565b6001836020036101000a0380198251168184511680821785525050505050509050019150506040518091039020604051602001808581526020018481526020018373ffffffffffffffffffffffffffffffffffffffff1673ffffffffffffffffffffffffffffffffffffffff168152602001828152602001945050505050604051602081830303815290604052805190602001209050919050565b6000612c6f612ccc565b8260405160200180807f190100000000000000000000000000000000000000000000000000000000000081525060020183815260200182815260200192505050604051602081830303815290604052805190602001209050919050565b60008054905090565b60606040519081016040528060008152602001600073ffffffffffffffffffffffffffffffffffffffff16815260200160608152509056fea165627a7a72305820ae788b199b67a17efce61e1ef2a27811684580682595958ffb47346a1fc6a93c0029a165627a7a723058200cd2a70db0572784ca0c8872b47cea0e6d6213243162f34299e278bbd335d3060029",
  "source": "pragma solidity 0.5.0;\n\n/**\n * Name    : Rage Factory Contract for managing contests smart contracts \n * Company : Rage.Fan \n * Author  : Saravana Malaichami (saravana at rage.fan)\n * Date    : 20-Feb-2021\n * Version : 0.1 \n */\n\nimport \"@openzeppelin/contracts/ownership/Ownable.sol\";\nimport { RageContest } from './RageContest.sol';\nimport \"./EIP712MetaTransaction.sol\";\n\n/**\n* Chain id = 80001 is matic Mumbai test net rpc-mumbai. need to change for main net \n*/\ncontract RageFactory is EIP712MetaTransaction(\"RageFactoryContract\",\"1\", 80001) {\n    address[] public contests;\n    address public  owner;\n\n    event ContestCreated(string  name, address contestAddress);\n\n    function createNewContest(string memory _id, string memory _name,  uint _startTime, \n                              uint _endTime, string memory _contestTitle, uint256 _contestFees, \n                              uint256 _winningAmount, bool _isActive, address _tokenAddress\n                            )\n                            onlyOwner\n                            public returns (address) {\n\n\n                RageContest newContest = new RageContest( _id, _name, _startTime, _endTime,\n                                                          _contestTitle,\n                                                          _contestFees,\n                                                          _winningAmount,\n                                                          _isActive,\n                                                          _tokenAddress\n                                                        );\n                contests.push(address(newContest));\n\n                emit ContestCreated(_name, address(newContest));\n        }\n\n        modifier onlyOwner {\n        assert (msgSender() == owner) ;\n        _;\n    }\n\n}",
  "sourcePath": "/home/sunil/Projects/Fantasy sports/Rage-Fan-Fantasy-Contracts/contracts/RageFactory.sol",
  "compiler": {
    "name": "solc",
    "version": "0.5.0+commit.1d4f565a.Emscripten.clang"
  },
  "schemaVersion": "3.3.4",
  "updatedAt": "2021-03-19T06:32:29.845Z",
  "devdoc": {
    "methods": {}
  },
  "userdoc": {
    "methods": {},
    "notice": "Chain id = 80001 is matic Mumbai test net rpc-mumbai. need to change for main net "
  }
}